{
  "contractName": "DAO",
  "abi": [
    {
      "inputs": [],
      "stateMutability": "nonpayable",
      "type": "constructor"
    },
    {
      "anonymous": false,
      "inputs": [
        {
          "indexed": true,
          "internalType": "address",
          "name": "donor",
          "type": "address"
        },
        {
          "indexed": false,
          "internalType": "uint256",
          "name": "amount",
          "type": "uint256"
        }
      ],
      "name": "DonationReceived",
      "type": "event"
    },
    {
      "anonymous": false,
      "inputs": [
        {
          "indexed": true,
          "internalType": "uint256",
          "name": "id",
          "type": "uint256"
        },
        {
          "indexed": false,
          "internalType": "string",
          "name": "purpose",
          "type": "string"
        },
        {
          "indexed": false,
          "internalType": "uint256",
          "name": "amount",
          "type": "uint256"
        },
        {
          "indexed": false,
          "internalType": "address",
          "name": "recipient",
          "type": "address"
        },
        {
          "indexed": false,
          "internalType": "uint256",
          "name": "end",
          "type": "uint256"
        }
      ],
      "name": "ProposalCreated",
      "type": "event"
    },
    {
      "anonymous": false,
      "inputs": [
        {
          "indexed": true,
          "internalType": "uint256",
          "name": "proposalId",
          "type": "uint256"
        },
        {
          "indexed": false,
          "internalType": "uint256",
          "name": "amount",
          "type": "uint256"
        },
        {
          "indexed": false,
          "internalType": "address",
          "name": "recipient",
          "type": "address"
        }
      ],
      "name": "ProposalExecuted",
      "type": "event"
    },
    {
      "anonymous": false,
      "inputs": [
        {
          "indexed": true,
          "internalType": "address",
          "name": "investor",
          "type": "address"
        },
        {
          "indexed": false,
          "internalType": "uint256",
          "name": "amount",
          "type": "uint256"
        }
      ],
      "name": "RedeemShares",
      "type": "event"
    },
    {
      "anonymous": false,
      "inputs": [
        {
          "indexed": false,
          "internalType": "string",
          "name": "reason",
          "type": "string"
        }
      ],
      "name": "RequirementError",
      "type": "event"
    },
    {
      "anonymous": false,
      "inputs": [
        {
          "indexed": true,
          "internalType": "address",
          "name": "from",
          "type": "address"
        },
        {
          "indexed": true,
          "internalType": "address",
          "name": "to",
          "type": "address"
        },
        {
          "indexed": false,
          "internalType": "uint256",
          "name": "shares",
          "type": "uint256"
        }
      ],
      "name": "SharesTransferred",
      "type": "event"
    },
    {
      "anonymous": false,
      "inputs": [
        {
          "indexed": true,
          "internalType": "uint256",
          "name": "proposalId",
          "type": "uint256"
        },
        {
          "indexed": true,
          "internalType": "address",
          "name": "voter",
          "type": "address"
        },
        {
          "indexed": false,
          "internalType": "uint256",
          "name": "votes",
          "type": "uint256"
        }
      ],
      "name": "VoteCasted",
      "type": "event"
    },
    {
      "inputs": [
        {
          "internalType": "uint256",
          "name": "",
          "type": "uint256"
        }
      ],
      "name": "InvestorList",
      "outputs": [
        {
          "internalType": "address",
          "name": "",
          "type": "address"
        }
      ],
      "stateMutability": "view",
      "type": "function",
      "constant": true
    },
    {
      "inputs": [],
      "name": "RemainingFund",
      "outputs": [
        {
          "internalType": "uint256",
          "name": "",
          "type": "uint256"
        }
      ],
      "stateMutability": "view",
      "type": "function",
      "constant": true
    },
    {
      "inputs": [],
      "name": "TotalShares",
      "outputs": [
        {
          "internalType": "uint256",
          "name": "",
          "type": "uint256"
        }
      ],
      "stateMutability": "view",
      "type": "function",
      "constant": true
    },
    {
      "inputs": [
        {
          "internalType": "address",
          "name": "",
          "type": "address"
        }
      ],
      "name": "isInvestor",
      "outputs": [
        {
          "internalType": "bool",
          "name": "",
          "type": "bool"
        }
      ],
      "stateMutability": "view",
      "type": "function",
      "constant": true
    },
    {
      "inputs": [
        {
          "internalType": "address",
          "name": "",
          "type": "address"
        },
        {
          "internalType": "uint256",
          "name": "",
          "type": "uint256"
        }
      ],
      "name": "isVoted",
      "outputs": [
        {
          "internalType": "bool",
          "name": "",
          "type": "bool"
        }
      ],
      "stateMutability": "view",
      "type": "function",
      "constant": true
    },
    {
      "inputs": [],
      "name": "manager",
      "outputs": [
        {
          "internalType": "address",
          "name": "",
          "type": "address"
        }
      ],
      "stateMutability": "view",
      "type": "function",
      "constant": true
    },
    {
      "inputs": [
        {
          "internalType": "uint256",
          "name": "",
          "type": "uint256"
        }
      ],
      "name": "proposals",
      "outputs": [
        {
          "internalType": "string",
          "name": "purpose",
          "type": "string"
        },
        {
          "internalType": "uint256",
          "name": "amount",
          "type": "uint256"
        },
        {
          "internalType": "address",
          "name": "recipient",
          "type": "address"
        },
        {
          "internalType": "uint256",
          "name": "id",
          "type": "uint256"
        },
        {
          "internalType": "uint256",
          "name": "votes",
          "type": "uint256"
        },
        {
          "internalType": "uint256",
          "name": "end",
          "type": "uint256"
        },
        {
          "internalType": "bool",
          "name": "isExecuted",
          "type": "bool"
        }
      ],
      "stateMutability": "view",
      "type": "function",
      "constant": true
    },
    {
      "inputs": [],
      "name": "quorum",
      "outputs": [
        {
          "internalType": "uint256",
          "name": "",
          "type": "uint256"
        }
      ],
      "stateMutability": "view",
      "type": "function",
      "constant": true
    },
    {
      "inputs": [],
      "name": "voteTime",
      "outputs": [
        {
          "internalType": "uint256",
          "name": "",
          "type": "uint256"
        }
      ],
      "stateMutability": "view",
      "type": "function",
      "constant": true
    },
    {
      "stateMutability": "payable",
      "type": "receive",
      "payable": true
    },
    {
      "inputs": [
        {
          "internalType": "string",
          "name": "_purpose",
          "type": "string"
        },
        {
          "internalType": "uint256",
          "name": "_amount",
          "type": "uint256"
        },
        {
          "internalType": "address",
          "name": "_recipient",
          "type": "address"
        },
        {
          "internalType": "uint256",
          "name": "_Endin",
          "type": "uint256"
        }
      ],
      "name": "createProposal",
      "outputs": [],
      "stateMutability": "nonpayable",
      "type": "function"
    },
    {
      "inputs": [],
      "name": "GetProposalList",
      "outputs": [
        {
          "components": [
            {
              "internalType": "string",
              "name": "purpose",
              "type": "string"
            },
            {
              "internalType": "uint256",
              "name": "amount",
              "type": "uint256"
            },
            {
              "internalType": "address",
              "name": "recipient",
              "type": "address"
            },
            {
              "internalType": "uint256",
              "name": "id",
              "type": "uint256"
            },
            {
              "internalType": "uint256",
              "name": "votes",
              "type": "uint256"
            },
            {
              "internalType": "uint256",
              "name": "end",
              "type": "uint256"
            },
            {
              "internalType": "bool",
              "name": "isExecuted",
              "type": "bool"
            }
          ],
          "internalType": "struct DAO.Proposal[]",
          "name": "",
          "type": "tuple[]"
        }
      ],
      "stateMutability": "view",
      "type": "function",
      "constant": true
    },
    {
      "inputs": [
        {
          "internalType": "uint256",
          "name": "_id",
          "type": "uint256"
        }
      ],
      "name": "executeProposal",
      "outputs": [
        {
          "internalType": "bool",
          "name": "",
          "type": "bool"
        }
      ],
      "stateMutability": "nonpayable",
      "type": "function"
    },
    {
      "inputs": [],
      "name": "Donate",
      "outputs": [],
      "stateMutability": "payable",
      "type": "function",
      "payable": true
    },
    {
      "inputs": [
        {
          "internalType": "uint256",
          "name": "_id",
          "type": "uint256"
        }
      ],
      "name": "Vote",
      "outputs": [
        {
          "internalType": "bool",
          "name": "",
          "type": "bool"
        }
      ],
      "stateMutability": "nonpayable",
      "type": "function"
    },
    {
      "inputs": [
        {
          "internalType": "address",
          "name": "TransferTo",
          "type": "address"
        },
        {
          "internalType": "uint256",
          "name": "ShareCount",
          "type": "uint256"
        }
      ],
      "name": "TransferShare",
      "outputs": [],
      "stateMutability": "nonpayable",
      "type": "function"
    },
    {
      "inputs": [
        {
          "internalType": "uint256",
          "name": "_ShareCount",
          "type": "uint256"
        }
      ],
      "name": "RedeemShare",
      "outputs": [],
      "stateMutability": "nonpayable",
      "type": "function"
    }
  ],
  "bytecode": "0x608060405234801561001057600080fd5b50603360018190555033600260006101000a81548173ffffffffffffffffffffffffffffffffffffffff021916908373ffffffffffffffffffffffffffffffffffffffff160217905550612d86806100696000396000f3fe6080604052600436106100f75760003560e01c80638abb1e741161008a578063c84f95bf11610059578063c84f95bf14610527578063cee2a9cf14610550578063d917deb51461058d578063dcd6a5cd14610597576102d4565b80638abb1e74146104695780638ee36f0514610494578063b4c62192146104d1578063bcf93dd6146104fc576102d4565b806329f27577116100c657806329f27577146103ad578063481c6a75146103ea5780635490a8821461041557806370a8585d14610440576102d4565b8063013cf08b146102d95780630d61b5191461031c5780631703a0181461035957806317aadb1414610384576102d4565b366102d4576101f4341015610141576040517f08c379a000000000000000000000000000000000000000000000000000000000815260040161013890612830565b60405180910390fd5b34600460008282546101539190612a3b565b925050819055506001600860003373ffffffffffffffffffffffffffffffffffffffff1673ffffffffffffffffffffffffffffffffffffffff16815260200190815260200160002060006101000a81548160ff02191690831515021790555034600760003373ffffffffffffffffffffffffffffffffffffffff1673ffffffffffffffffffffffffffffffffffffffff16815260200190815260200160002060008282546102019190612a3b565b925050819055506006339080600181540180825580915050600190039060005260206000200160009091909190916101000a81548173ffffffffffffffffffffffffffffffffffffffff021916908373ffffffffffffffffffffffffffffffffffffffff160217905550346005600082825461027d9190612a3b565b925050819055503373ffffffffffffffffffffffffffffffffffffffff167f264f630d9efa0d07053a31163641d9fcc0adafc9d9e76f1c37c2ce3a558d2c52346040516102ca9190612930565b60405180910390a2005b600080fd5b3480156102e557600080fd5b5061030060048036038101906102fb91906121b6565b6105d4565b604051610313979695949392919061275a565b60405180910390f35b34801561032857600080fd5b50610343600480360381019061033e91906121b6565b6106cb565b60405161035091906126f3565b60405180910390f35b34801561036557600080fd5b5061036e610a15565b60405161037b9190612930565b60405180910390f35b34801561039057600080fd5b506103ab60048036038101906103a691906121b6565b610a1b565b005b3480156103b957600080fd5b506103d460048036038101906103cf91906121b6565b610f13565b6040516103e191906126b6565b60405180910390f35b3480156103f657600080fd5b506103ff610f52565b60405161040c91906126b6565b60405180910390f35b34801561042157600080fd5b5061042a610f78565b6040516104379190612930565b60405180910390f35b34801561044c57600080fd5b506104676004803603810190610462919061213b565b610f7e565b005b34801561047557600080fd5b5061047e611194565b60405161048b9190612930565b60405180910390f35b3480156104a057600080fd5b506104bb60048036038101906104b691906120ff565b61119a565b6040516104c891906126f3565b60405180910390f35b3480156104dd57600080fd5b506104e66111c9565b6040516104f391906126d1565b60405180910390f35b34801561050857600080fd5b50610511611400565b60405161051e9190612930565b60405180910390f35b34801561053357600080fd5b5061054e600480360381019061054991906120ff565b611406565b005b34801561055c57600080fd5b50610577600480360381019061057291906120d6565b611a6f565b60405161058491906126f3565b60405180910390f35b610595611a8f565b005b3480156105a357600080fd5b506105be60048036038101906105b991906121b6565b611c67565b6040516105cb91906126f3565b60405180910390f35b600a6020528060005260406000206000915090508060000180546105f790612bda565b80601f016020809104026020016040519081016040528092919081815260200182805461062390612bda565b80156106705780601f1061064557610100808354040283529160200191610670565b820191906000526020600020905b81548152906001019060200180831161065357829003601f168201915b5050505050908060010154908060020160009054906101000a900473ffffffffffffffffffffffffffffffffffffffff16908060030154908060040154908060050154908060060160009054906101000a900460ff16905087565b6000600260009054906101000a900473ffffffffffffffffffffffffffffffffffffffff1673ffffffffffffffffffffffffffffffffffffffff163373ffffffffffffffffffffffffffffffffffffffff161461075c577f9bf4c0aa9ddc22267780b438caee4bac01fd8100f245ffba9f8036451afc691860405161074f90612870565b60405180910390a1600080fd5b60001515600a600084815260200190815260200160002060060160009054906101000a900460ff161515146107c6576040517f08c379a00000000000000000000000000000000000000000000000000000000081526004016107bd90612890565b60405180910390fd5b6001546004546064600a6000868152602001908152602001600020600401546107ef9190612ac2565b6107f99190612a91565b101561083a576040517f08c379a000000000000000000000000000000000000000000000000000000000815260040161083190612910565b60405180910390fd5b6001600a600084815260200190815260200160002060060160006101000a81548160ff021916908315150217905550600a600083815260200190815260200160002060010154600560008282546108919190612b1c565b92505081905550600554600a60008481526020019081526020016000206001015411156108f3576040517f08c379a00000000000000000000000000000000000000000000000000000000081526004016108ea906128d0565b60405180910390fd5b600a600083815260200190815260200160002060020160009054906101000a900473ffffffffffffffffffffffffffffffffffffffff1673ffffffffffffffffffffffffffffffffffffffff166108fc600a6000858152602001908152602001600020600101549081150290604051600060405180830381858888f19350505050158015610985573d6000803e3d6000fd5b50817fe285e47f4804f679760aa4e907da874045af16436d55df64b64ffd9ca2539dfa600a600085815260200190815260200160002060010154600a600086815260200190815260200160002060020160009054906101000a900473ffffffffffffffffffffffffffffffffffffffff16604051610a0492919061294b565b60405180910390a260019050919050565b60015481565b600860003373ffffffffffffffffffffffffffffffffffffffff1673ffffffffffffffffffffffffffffffffffffffff16815260200190815260200160002060009054906101000a900460ff16610aa7576040517f08c379a0000000000000000000000000000000000000000000000000000000008152600401610a9e90612850565b60405180910390fd5b80600760003373ffffffffffffffffffffffffffffffffffffffff1673ffffffffffffffffffffffffffffffffffffffff168152602001908152602001600020541015610b29576040517f08c379a0000000000000000000000000000000000000000000000000000000008152600401610b20906127d0565b60405180910390fd5b80600760003373ffffffffffffffffffffffffffffffffffffffff1673ffffffffffffffffffffffffffffffffffffffff1681526020019081526020016000206000828254610b789190612b1c565b925050819055506000600760003373ffffffffffffffffffffffffffffffffffffffff1673ffffffffffffffffffffffffffffffffffffffff168152602001908152602001600020541415610e61576000600860003373ffffffffffffffffffffffffffffffffffffffff1673ffffffffffffffffffffffffffffffffffffffff16815260200190815260200160002060006101000a81548160ff02191690831515021790555060005b600680549050811015610e5f573373ffffffffffffffffffffffffffffffffffffffff1660068281548110610c80577f4e487b7100000000000000000000000000000000000000000000000000000000600052603260045260246000fd5b9060005260206000200160009054906101000a900473ffffffffffffffffffffffffffffffffffffffff1673ffffffffffffffffffffffffffffffffffffffff161415610dc55760066001600680549050610cdb9190612b1c565b81548110610d12577f4e487b7100000000000000000000000000000000000000000000000000000000600052603260045260246000fd5b9060005260206000200160009054906101000a900473ffffffffffffffffffffffffffffffffffffffff1660068281548110610d77577f4e487b7100000000000000000000000000000000000000000000000000000000600052603260045260246000fd5b9060005260206000200160006101000a81548173ffffffffffffffffffffffffffffffffffffffff021916908373ffffffffffffffffffffffffffffffffffffffff16021790555050610f10565b6001600680549050610dd79190612b1c565b811415610e4c576006805480610e16577f4e487b7100000000000000000000000000000000000000000000000000000000600052603160045260246000fd5b6001900381819060005260206000200160006101000a81549073ffffffffffffffffffffffffffffffffffffffff021916905590555b8080610e5790612c0c565b915050610c22565b505b8060056000828254610e739190612b1c565b925050819055503373ffffffffffffffffffffffffffffffffffffffff166108fc829081150290604051600060405180830381858888f19350505050158015610ec0573d6000803e3d6000fd5b503373ffffffffffffffffffffffffffffffffffffffff167f5460477ab9e47c541080b6d90d7a5ab2e64355534a42071670aba93c4d17be4882604051610f079190612930565b60405180910390a25b50565b60068181548110610f2357600080fd5b906000526020600020016000915054906101000a900473ffffffffffffffffffffffffffffffffffffffff1681565b600260009054906101000a900473ffffffffffffffffffffffffffffffffffffffff1681565b60055481565b600260009054906101000a900473ffffffffffffffffffffffffffffffffffffffff1673ffffffffffffffffffffffffffffffffffffffff163373ffffffffffffffffffffffffffffffffffffffff161461100d577f9bf4c0aa9ddc22267780b438caee4bac01fd8100f245ffba9f8036451afc691860405161100090612870565b60405180910390a1600080fd5b6040518060e001604052808581526020018481526020018373ffffffffffffffffffffffffffffffffffffffff168152602001600354815260200160008152602001824261105b9190612a3b565b815260200160001515815250600a600060035481526020019081526020016000206000820151816000019080519060200190611098929190611f4c565b506020820151816001015560408201518160020160006101000a81548173ffffffffffffffffffffffffffffffffffffffff021916908373ffffffffffffffffffffffffffffffffffffffff160217905550606082015181600301556080820151816004015560a0820151816005015560c08201518160060160006101000a81548160ff0219169083151502179055509050506003547f8d35b72fd3f082426bb4cd3801396bf51e9e77a2d5cd5ecec078b485a107b71f858585428661115e9190612a3b565b60405161116e949392919061270e565b60405180910390a26003600081548092919061118990612c0c565b919050555050505050565b60045481565b60096020528160005260406000206020528060005260406000206000915091509054906101000a900460ff1681565b6060600060035467ffffffffffffffff81111561120f577f4e487b7100000000000000000000000000000000000000000000000000000000600052604160045260246000fd5b60405190808252806020026020018201604052801561124857816020015b611235611fd2565b81526020019060019003908161122d5790505b50905060005b6003548110156113f857600a60008281526020019081526020016000206040518060e001604052908160008201805461128690612bda565b80601f01602080910402602001604051908101604052809291908181526020018280546112b290612bda565b80156112ff5780601f106112d4576101008083540402835291602001916112ff565b820191906000526020600020905b8154815290600101906020018083116112e257829003601f168201915b50505050508152602001600182015481526020016002820160009054906101000a900473ffffffffffffffffffffffffffffffffffffffff1673ffffffffffffffffffffffffffffffffffffffff1673ffffffffffffffffffffffffffffffffffffffff1681526020016003820154815260200160048201548152602001600582015481526020016006820160009054906101000a900460ff1615151515815250508282815181106113da577f4e487b7100000000000000000000000000000000000000000000000000000000600052603260045260246000fd5b602002602001018190525080806113f090612c0c565b91505061124e565b508091505090565b60005481565b600860003373ffffffffffffffffffffffffffffffffffffffff1673ffffffffffffffffffffffffffffffffffffffff16815260200190815260200160002060009054906101000a900460ff16611492576040517f08c379a000000000000000000000000000000000000000000000000000000000815260040161148990612850565b60405180910390fd5b80600760003373ffffffffffffffffffffffffffffffffffffffff1673ffffffffffffffffffffffffffffffffffffffff168152602001908152602001600020541015611514576040517f08c379a000000000000000000000000000000000000000000000000000000000815260040161150b906127d0565b60405180910390fd5b3373ffffffffffffffffffffffffffffffffffffffff168273ffffffffffffffffffffffffffffffffffffffff161415801561157d5750600073ffffffffffffffffffffffffffffffffffffffff168273ffffffffffffffffffffffffffffffffffffffff1614155b6115bc576040517f08c379a00000000000000000000000000000000000000000000000000000000081526004016115b3906128f0565b60405180910390fd5b80600760003373ffffffffffffffffffffffffffffffffffffffff1673ffffffffffffffffffffffffffffffffffffffff168152602001908152602001600020600082825461160b9190612b1c565b9250508190555080600760008473ffffffffffffffffffffffffffffffffffffffff1673ffffffffffffffffffffffffffffffffffffffff16815260200190815260200160002060008282546116619190612a3b565b925050819055506001600860008473ffffffffffffffffffffffffffffffffffffffff1673ffffffffffffffffffffffffffffffffffffffff16815260200190815260200160002060006101000a81548160ff0219169083151502179055506006829080600181540180825580915050600190039060005260206000200160009091909190916101000a81548173ffffffffffffffffffffffffffffffffffffffff021916908373ffffffffffffffffffffffffffffffffffffffff1602179055506000600760003373ffffffffffffffffffffffffffffffffffffffff1673ffffffffffffffffffffffffffffffffffffffff168152602001908152602001600020541415611a05576000600860003373ffffffffffffffffffffffffffffffffffffffff1673ffffffffffffffffffffffffffffffffffffffff16815260200190815260200160002060006101000a81548160ff02191690831515021790555060005b600680549050811015611a03573373ffffffffffffffffffffffffffffffffffffffff1660068281548110611824577f4e487b7100000000000000000000000000000000000000000000000000000000600052603260045260246000fd5b9060005260206000200160009054906101000a900473ffffffffffffffffffffffffffffffffffffffff1673ffffffffffffffffffffffffffffffffffffffff161415611969576006600160068054905061187f9190612b1c565b815481106118b6577f4e487b7100000000000000000000000000000000000000000000000000000000600052603260045260246000fd5b9060005260206000200160009054906101000a900473ffffffffffffffffffffffffffffffffffffffff166006828154811061191b577f4e487b7100000000000000000000000000000000000000000000000000000000600052603260045260246000fd5b9060005260206000200160006101000a81548173ffffffffffffffffffffffffffffffffffffffff021916908373ffffffffffffffffffffffffffffffffffffffff16021790555050611a6b565b600160068054905061197b9190612b1c565b8114156119f05760068054806119ba577f4e487b7100000000000000000000000000000000000000000000000000000000600052603160045260246000fd5b6001900381819060005260206000200160006101000a81549073ffffffffffffffffffffffffffffffffffffffff021916905590555b80806119fb90612c0c565b9150506117c6565b505b8173ffffffffffffffffffffffffffffffffffffffff163373ffffffffffffffffffffffffffffffffffffffff167f99c01cd4f8275976ef33d24514b1694c8a9d5730d92e26996834343e09778e9983604051611a629190612930565b60405180910390a35b5050565b60086020528060005260406000206000915054906101000a900460ff1681565b6101f4341015611ad4576040517f08c379a0000000000000000000000000000000000000000000000000000000008152600401611acb906128b0565b60405180910390fd5b3460046000828254611ae69190612a3b565b925050819055506001600860003373ffffffffffffffffffffffffffffffffffffffff1673ffffffffffffffffffffffffffffffffffffffff16815260200190815260200160002060006101000a81548160ff02191690831515021790555034600760003373ffffffffffffffffffffffffffffffffffffffff1673ffffffffffffffffffffffffffffffffffffffff1681526020019081526020016000206000828254611b949190612a3b565b925050819055506006339080600181540180825580915050600190039060005260206000200160009091909190916101000a81548173ffffffffffffffffffffffffffffffffffffffff021916908373ffffffffffffffffffffffffffffffffffffffff1602179055503460056000828254611c109190612a3b565b925050819055503373ffffffffffffffffffffffffffffffffffffffff167f264f630d9efa0d07053a31163641d9fcc0adafc9d9e76f1c37c2ce3a558d2c5234604051611c5d9190612930565b60405180910390a2565b6000600860003373ffffffffffffffffffffffffffffffffffffffff1673ffffffffffffffffffffffffffffffffffffffff16815260200190815260200160002060009054906101000a900460ff16611cf5576040517f08c379a0000000000000000000000000000000000000000000000000000000008152600401611cec90612850565b60405180910390fd5b42600a6000848152602001908152602001600020600501541015611d4e576040517f08c379a0000000000000000000000000000000000000000000000000000000008152600401611d4590612810565b60405180910390fd5b60001515600960003373ffffffffffffffffffffffffffffffffffffffff1673ffffffffffffffffffffffffffffffffffffffff168152602001908152602001600020600084815260200190815260200160002060009054906101000a900460ff16151514611df2576040517f08c379a0000000000000000000000000000000000000000000000000000000008152600401611de9906127f0565b60405180910390fd5b6001600960003373ffffffffffffffffffffffffffffffffffffffff1673ffffffffffffffffffffffffffffffffffffffff168152602001908152602001600020600084815260200190815260200160002060006101000a81548160ff021916908315150217905550600760003373ffffffffffffffffffffffffffffffffffffffff1673ffffffffffffffffffffffffffffffffffffffff16815260200190815260200160002054600a6000848152602001908152602001600020600401819055503373ffffffffffffffffffffffffffffffffffffffff16827fe7ee74ca1f4bb1b82b14f87794c45b3e59c39e372b862fb97a6316b43355b69e600760003373ffffffffffffffffffffffffffffffffffffffff1673ffffffffffffffffffffffffffffffffffffffff16815260200190815260200160002054604051611f3b9190612930565b60405180910390a360019050919050565b828054611f5890612bda565b90600052602060002090601f016020900481019282611f7a5760008555611fc1565b82601f10611f9357805160ff1916838001178555611fc1565b82800160010185558215611fc1579182015b82811115611fc0578251825591602001919060010190611fa5565b5b509050611fce9190612027565b5090565b6040518060e001604052806060815260200160008152602001600073ffffffffffffffffffffffffffffffffffffffff1681526020016000815260200160008152602001600081526020016000151581525090565b5b80821115612040576000816000905550600101612028565b5090565b6000612057612052846129a5565b612974565b90508281526020810184848401111561206f57600080fd5b61207a848285612b98565b509392505050565b60008135905061209181612d22565b92915050565b600082601f8301126120a857600080fd5b81356120b8848260208601612044565b91505092915050565b6000813590506120d081612d39565b92915050565b6000602082840312156120e857600080fd5b60006120f684828501612082565b91505092915050565b6000806040838503121561211257600080fd5b600061212085828601612082565b9250506020612131858286016120c1565b9150509250929050565b6000806000806080858703121561215157600080fd5b600085013567ffffffffffffffff81111561216b57600080fd5b61217787828801612097565b9450506020612188878288016120c1565b935050604061219987828801612082565b92505060606121aa878288016120c1565b91505092959194509250565b6000602082840312156121c857600080fd5b60006121d6848285016120c1565b91505092915050565b60006121eb83836125fc565b905092915050565b6121fc81612b50565b82525050565b61220b81612b50565b82525050565b600061221c826129e5565b6122268185612a08565b935083602082028501612238856129d5565b8060005b85811015612274578484038952815161225585826121df565b9450612260836129fb565b925060208a0199505060018101905061223c565b50829750879550505050505092915050565b61228f81612b62565b82525050565b61229e81612b62565b82525050565b60006122af826129f0565b6122b98185612a19565b93506122c9818560208601612ba7565b6122d281612d11565b840191505092915050565b60006122e8826129f0565b6122f28185612a2a565b9350612302818560208601612ba7565b61230b81612d11565b840191505092915050565b6000612323601383612a2a565b91507f496e73756666696369656e7420536861726573000000000000000000000000006000830152602082019050919050565b6000612363600d83612a2a565b91507f416c726561647920566f746564000000000000000000000000000000000000006000830152602082019050919050565b60006123a3601183612a2a565b91507f566f74696e672054696d6520456e6465640000000000000000000000000000006000830152602082019050919050565b60006123e3601583612a2a565b91507f53656e64206174206c65617374203530302057656900000000000000000000006000830152602082019050919050565b6000612423601983612a2a565b91507f4f6e6c7920696e766573746f72732063616e20616363657373000000000000006000830152602082019050919050565b6000612463602583612a2a565b91507f4f6e6c79204d616e616765722063616e2061636365737320746869732066756e60008301527f6374696f6e0000000000000000000000000000000000000000000000000000006020830152604082019050919050565b60006124c9601983612a2a565b91507f50726f706f73616c20416c7265616479204578656375746564000000000000006000830152602082019050919050565b6000612509601583612a2a565b91507f53656e64204174206c65617374203530302057656900000000000000000000006000830152602082019050919050565b6000612549601483612a2a565b91507f496e73756666696369656e742042616c616e63650000000000000000000000006000830152602082019050919050565b6000612589600f83612a2a565b91507f496e76616c6964204164647265737300000000000000000000000000000000006000830152602082019050919050565b60006125c9601983612a2a565b91507f4d616a6f7269747920646f6573206e6f7420737570706f7274000000000000006000830152602082019050919050565b600060e083016000830151848203600086015261261982826122a4565b915050602083015161262e6020860182612698565b50604083015161264160408601826121f3565b5060608301516126546060860182612698565b5060808301516126676080860182612698565b5060a083015161267a60a0860182612698565b5060c083015161268d60c0860182612286565b508091505092915050565b6126a181612b8e565b82525050565b6126b081612b8e565b82525050565b60006020820190506126cb6000830184612202565b92915050565b600060208201905081810360008301526126eb8184612211565b905092915050565b60006020820190506127086000830184612295565b92915050565b6000608082019050818103600083015261272881876122dd565b905061273760208301866126a7565b6127446040830185612202565b61275160608301846126a7565b95945050505050565b600060e0820190508181036000830152612774818a6122dd565b905061278360208301896126a7565b6127906040830188612202565b61279d60608301876126a7565b6127aa60808301866126a7565b6127b760a08301856126a7565b6127c460c0830184612295565b98975050505050505050565b600060208201905081810360008301526127e981612316565b9050919050565b6000602082019050818103600083015261280981612356565b9050919050565b6000602082019050818103600083015261282981612396565b9050919050565b60006020820190508181036000830152612849816123d6565b9050919050565b6000602082019050818103600083015261286981612416565b9050919050565b6000602082019050818103600083015261288981612456565b9050919050565b600060208201905081810360008301526128a9816124bc565b9050919050565b600060208201905081810360008301526128c9816124fc565b9050919050565b600060208201905081810360008301526128e98161253c565b9050919050565b600060208201905081810360008301526129098161257c565b9050919050565b60006020820190508181036000830152612929816125bc565b9050919050565b600060208201905061294560008301846126a7565b92915050565b600060408201905061296060008301856126a7565b61296d6020830184612202565b9392505050565b6000604051905081810181811067ffffffffffffffff8211171561299b5761299a612ce2565b5b8060405250919050565b600067ffffffffffffffff8211156129c0576129bf612ce2565b5b601f19601f8301169050602081019050919050565b6000819050602082019050919050565b600081519050919050565b600081519050919050565b6000602082019050919050565b600082825260208201905092915050565b600082825260208201905092915050565b600082825260208201905092915050565b6000612a4682612b8e565b9150612a5183612b8e565b9250827fffffffffffffffffffffffffffffffffffffffffffffffffffffffffffffffff03821115612a8657612a85612c55565b5b828201905092915050565b6000612a9c82612b8e565b9150612aa783612b8e565b925082612ab757612ab6612c84565b5b828204905092915050565b6000612acd82612b8e565b9150612ad883612b8e565b9250817fffffffffffffffffffffffffffffffffffffffffffffffffffffffffffffffff0483118215151615612b1157612b10612c55565b5b828202905092915050565b6000612b2782612b8e565b9150612b3283612b8e565b925082821015612b4557612b44612c55565b5b828203905092915050565b6000612b5b82612b6e565b9050919050565b60008115159050919050565b600073ffffffffffffffffffffffffffffffffffffffff82169050919050565b6000819050919050565b82818337600083830152505050565b60005b83811015612bc5578082015181840152602081019050612baa565b83811115612bd4576000848401525b50505050565b60006002820490506001821680612bf257607f821691505b60208210811415612c0657612c05612cb3565b5b50919050565b6000612c1782612b8e565b91507fffffffffffffffffffffffffffffffffffffffffffffffffffffffffffffffff821415612c4a57612c49612c55565b5b600182019050919050565b7f4e487b7100000000000000000000000000000000000000000000000000000000600052601160045260246000fd5b7f4e487b7100000000000000000000000000000000000000000000000000000000600052601260045260246000fd5b7f4e487b7100000000000000000000000000000000000000000000000000000000600052602260045260246000fd5b7f4e487b7100000000000000000000000000000000000000000000000000000000600052604160045260246000fd5b6000601f19601f8301169050919050565b612d2b81612b50565b8114612d3657600080fd5b50565b612d4281612b8e565b8114612d4d57600080fd5b5056fea2646970667358221220cbf22b3a8585827ff99d35273a9d543bd38a4ee7c10088e5451c47941199878264736f6c63430008000033",
  "immutableReferences": {},
  "source": "// SPDX-License-Identifier: GPL-3.0\n\npragma solidity >=0.7.0 <0.9.0;\n\ncontract DAO {\n    struct Proposal {\n        string purpose; // Purpose or description of the proposal\n        uint256 amount; // Amount of Ether associated with the proposal.\n        address recipient; // Corrected \"receipient\" to \"recipient\"\n        uint256 id; // Unique identifier for the proposal.\n        uint256 votes; // Total votes reveived by the proposal.\n        uint256 end; // Timestamp indicating when the proposal's voting ends.\n        bool isExecuted; // Flag indicating whether the proposal has been executed.\n    }\n    uint256 public voteTime; // Time allocated for vating on proposals.\n    uint256 public quorum; // Percentage of votes required for a proposal to pass\n    address public manager; // Address of the contract manager (creator).\n    uint256 id; // Unique identifier for proposals.\n    uint256 public TotalShares; // Total shares held by all investors.\n    uint256 public RemainingFund; // Remaaining Et\n    address[] public InvestorList; // List of addresses of all investors.\n\n    mapping(address => uint) SharesOf; // Mapping of shares held by each investor.\n    mapping(address => bool) public isInvestor; // Mapping of Addresses to investor status.\n    mapping(address => mapping(uint256 => bool)) public isVoted; // Mapping of addresses and proposals voted on.\n    mapping(uint256 => Proposal) public proposals; // Mapping of proposal IDs to proposal details.\n\n    event ProposalCreated(\n        uint256 indexed id,\n        string purpose,\n        uint256 amount,\n        address recipient,\n        uint256 end\n    ); // Emits information about a newly created proposal.\n    event VoteCasted(\n        uint256 indexed proposalId,\n        address indexed voter,\n        uint256 votes\n    ); // Emits when an investor casts their vote on a proposal.\n    event ProposalExecuted(\n        uint256 indexed proposalId,\n        uint256 amount,\n        address recipient\n    ); // Emits the execution of a proposal, including details of the transaction.\n    event SharesTransferred(\n        address indexed from,\n        address indexed to,\n        uint256 shares\n    ); // Emits the transfer of shares between investors.\n    event RedeemShares(address indexed investor, uint256 amount);  // Emits when an investor redeems shares and withdraws funds.\n    event DonationReceived(address indexed donor, uint256 amount); // Emits when a donation is made to the contract.\n    event RequirementError(string reason);                         // Emits with custom error message when condition not met.\n\n    constructor() {\n        quorum = 51;\n        manager = msg.sender; // The contract creator is the initial manager.\n    }\n\n    modifier onlyManager() {\n        // Modifier to restrict access to only the contract manager.\n        if(msg.sender != manager){\n            emit RequirementError(\"Only Manager can access this function\");\n            revert();\n        }\n        _;\n    }\n\n    modifier onlyInvestor() {\n        // Modifier to restrict access to only investors.\n        require(isInvestor[msg.sender], \"Only investors can access\");\n        _;\n    }\n\n    // Function to create a proposal.\n    function createProposal(\n        string memory _purpose,\n        uint256 _amount,\n        address _recipient, // Corrected \"receipient\" to \"recipient\"\n        uint256 _Endin\n    ) public onlyManager {\n        proposals[id] = Proposal(\n            _purpose,\n            _amount,\n            _recipient,\n            id,\n            0,\n            block.timestamp + _Endin,\n            false\n        );\n        emit ProposalCreated(\n            id,\n            _purpose,\n            _amount,\n            _recipient,\n            _Endin + block.timestamp\n        );\n        id++;\n}\n\n    // Function to retrieve a list of all proposals.\n    function GetProposalList() public view returns (Proposal[] memory) {\n        Proposal[] memory arr = new Proposal[](id);\n        for (uint x; x < id; x++) {\n            arr[x] = proposals[x];\n        }\n        return arr;\n    }\n\n    // Function to execute a proposal.\n    function executeProposal(uint256 _id) public onlyManager returns (bool) {\n        require(\n            proposals[_id].isExecuted == false,\n            \"Proposal Already Executed\"\n        );\n        require(\n            ((proposals[_id].votes * 100) / TotalShares) >= quorum,\n            \"Majority does not support\"\n        );\n        proposals[_id].isExecuted = true;\n        RemainingFund -= proposals[_id].amount;\n        require(proposals[_id].amount <= RemainingFund, \"Insufficient Balance\");\n        payable(proposals[_id].recipient).transfer(proposals[_id].amount);\n        emit ProposalExecuted(\n            _id,\n            proposals[_id].amount,\n            proposals[_id].recipient\n        );\n        return true;\n    }\n\n    // Function to receive Ether donations.\n    receive() external payable {\n        require(msg.value >= 500, \"Send at least 500 Wei\");\n        TotalShares += msg.value;\n        isInvestor[msg.sender] = true;\n        SharesOf[msg.sender] += msg.value;\n        InvestorList.push(msg.sender);\n        RemainingFund += msg.value;\n        emit DonationReceived(msg.sender, msg.value);\n    }\n\n    // Function for users to donate to the contract.\n    function Donate() public payable {\n        require(msg.value >= 500, \"Send At least 500 Wei\");\n        TotalShares += msg.value;\n        isInvestor[msg.sender] = true;\n        SharesOf[msg.sender] += msg.value;\n        InvestorList.push(msg.sender);\n        RemainingFund += msg.value;\n        emit DonationReceived(msg.sender, msg.value);\n    }\n\n    // Function for investors to vote on a proposal.\n    function Vote(uint _id) public onlyInvestor returns (bool) {\n        require(proposals[_id].end >= block.timestamp, \"Voting Time Ended\");\n        require(isVoted[msg.sender][_id] == false, \"Already Voted\");\n        isVoted[msg.sender][_id] = true;\n        proposals[_id].votes = SharesOf[msg.sender];\n        emit VoteCasted(_id, msg.sender, SharesOf[msg.sender]);\n        return true;\n    }\n\n    // Function to transfer shares from one investor to another.\n    function TransferShare(\n        address TransferTo,\n        uint ShareCount\n    ) public onlyInvestor {\n        require(SharesOf[msg.sender] >= ShareCount, \"Insufficient Shares\");\n        require(\n            TransferTo != msg.sender && TransferTo != address(0),\n            \"Invalid Address\"\n        );\n        SharesOf[msg.sender] -= ShareCount;\n        SharesOf[TransferTo] += ShareCount; // Corrected to add shares to the recipient\n        isInvestor[TransferTo] = true;\n        InvestorList.push(TransferTo);\n        if (SharesOf[msg.sender] == 0) {\n            isInvestor[msg.sender] = false;\n            for (uint a; a < InvestorList.length; a++) {\n                if (InvestorList[a] == msg.sender) {\n                    InvestorList[a] = InvestorList[InvestorList.length - 1];\n                    return;\n                } else if (a == InvestorList.length - 1) {\n                    InvestorList.pop();\n                }\n            }\n        }\n        emit SharesTransferred(msg.sender, TransferTo, ShareCount);\n    }\n\n    // Function to redeem shares and withdraw funds.\n    function RedeemShare(uint _ShareCount) public onlyInvestor {\n        require(SharesOf[msg.sender] >= _ShareCount, \"Insufficient Shares\");\n        SharesOf[msg.sender] -= _ShareCount;\n        if (SharesOf[msg.sender] == 0) {\n            isInvestor[msg.sender] = false;\n            for (uint a; a < InvestorList.length; a++) {\n                if (InvestorList[a] == msg.sender) {\n                    InvestorList[a] = InvestorList[InvestorList.length - 1];\n                    return;\n                } else if (a == InvestorList.length - 1) {\n                    InvestorList.pop();\n                }\n            }\n        }\n        RemainingFund -= _ShareCount;\n        payable(msg.sender).transfer(_ShareCount);\n        emit RedeemShares(msg.sender, _ShareCount);\n    }\n}\n",
  "sourcePath": "C:\\Users\\akash\\OneDrive\\Desktop\\BlockChain_Projects\\Git_DAO\\dao\\contracts\\Dao.sol",
  "compiler": {
    "name": "solc",
    "version": "0.8.0+commit.c7dfd78e.Emscripten.clang"
  },
  "schemaVersion": "3.4.16",
  "updatedAt": "2023-12-18T13:40:34.164Z",
  "networkType": "ethereum",
  "devdoc": {
    "kind": "dev",
    "methods": {},
    "version": 1
  },
  "userdoc": {
    "kind": "user",
    "methods": {},
    "version": 1
  }
}