{
  "contractName": "DAO",
  "abi": [
    {
      "inputs": [],
      "stateMutability": "nonpayable",
      "type": "constructor"
    },
    {
      "anonymous": false,
      "inputs": [
        {
          "indexed": true,
          "internalType": "address",
          "name": "donor",
          "type": "address"
        },
        {
          "indexed": false,
          "internalType": "uint256",
          "name": "amount",
          "type": "uint256"
        }
      ],
      "name": "DonationReceived",
      "type": "event"
    },
    {
      "anonymous": false,
      "inputs": [
        {
          "indexed": true,
          "internalType": "uint256",
          "name": "id",
          "type": "uint256"
        },
        {
          "indexed": false,
          "internalType": "string",
          "name": "purpose",
          "type": "string"
        },
        {
          "indexed": false,
          "internalType": "uint256",
          "name": "amount",
          "type": "uint256"
        },
        {
          "indexed": false,
          "internalType": "address",
          "name": "recipient",
          "type": "address"
        },
        {
          "indexed": false,
          "internalType": "uint256",
          "name": "end",
          "type": "uint256"
        }
      ],
      "name": "ProposalCreated",
      "type": "event"
    },
    {
      "anonymous": false,
      "inputs": [
        {
          "indexed": true,
          "internalType": "uint256",
          "name": "proposalId",
          "type": "uint256"
        },
        {
          "indexed": false,
          "internalType": "uint256",
          "name": "amount",
          "type": "uint256"
        },
        {
          "indexed": false,
          "internalType": "address",
          "name": "recipient",
          "type": "address"
        }
      ],
      "name": "ProposalExecuted",
      "type": "event"
    },
    {
      "anonymous": false,
      "inputs": [
        {
          "indexed": true,
          "internalType": "address",
          "name": "investor",
          "type": "address"
        },
        {
          "indexed": false,
          "internalType": "uint256",
          "name": "amount",
          "type": "uint256"
        }
      ],
      "name": "RedeemShares",
      "type": "event"
    },
    {
      "anonymous": false,
      "inputs": [
        {
          "indexed": true,
          "internalType": "address",
          "name": "from",
          "type": "address"
        },
        {
          "indexed": true,
          "internalType": "address",
          "name": "to",
          "type": "address"
        },
        {
          "indexed": false,
          "internalType": "uint256",
          "name": "shares",
          "type": "uint256"
        }
      ],
      "name": "SharesTransferred",
      "type": "event"
    },
    {
      "anonymous": false,
      "inputs": [
        {
          "indexed": true,
          "internalType": "uint256",
          "name": "proposalId",
          "type": "uint256"
        },
        {
          "indexed": true,
          "internalType": "address",
          "name": "voter",
          "type": "address"
        },
        {
          "indexed": false,
          "internalType": "uint256",
          "name": "votes",
          "type": "uint256"
        }
      ],
      "name": "VoteCasted",
      "type": "event"
    },
    {
      "inputs": [
        {
          "internalType": "uint256",
          "name": "",
          "type": "uint256"
        }
      ],
      "name": "InvestorList",
      "outputs": [
        {
          "internalType": "address",
          "name": "",
          "type": "address"
        }
      ],
      "stateMutability": "view",
      "type": "function",
      "constant": true
    },
    {
      "inputs": [],
      "name": "RemainingFund",
      "outputs": [
        {
          "internalType": "uint256",
          "name": "",
          "type": "uint256"
        }
      ],
      "stateMutability": "view",
      "type": "function",
      "constant": true
    },
    {
      "inputs": [],
      "name": "TotalShares",
      "outputs": [
        {
          "internalType": "uint256",
          "name": "",
          "type": "uint256"
        }
      ],
      "stateMutability": "view",
      "type": "function",
      "constant": true
    },
    {
      "inputs": [
        {
          "internalType": "address",
          "name": "",
          "type": "address"
        }
      ],
      "name": "isInvestor",
      "outputs": [
        {
          "internalType": "bool",
          "name": "",
          "type": "bool"
        }
      ],
      "stateMutability": "view",
      "type": "function",
      "constant": true
    },
    {
      "inputs": [
        {
          "internalType": "address",
          "name": "",
          "type": "address"
        },
        {
          "internalType": "uint256",
          "name": "",
          "type": "uint256"
        }
      ],
      "name": "isVoted",
      "outputs": [
        {
          "internalType": "bool",
          "name": "",
          "type": "bool"
        }
      ],
      "stateMutability": "view",
      "type": "function",
      "constant": true
    },
    {
      "inputs": [],
      "name": "manager",
      "outputs": [
        {
          "internalType": "address",
          "name": "",
          "type": "address"
        }
      ],
      "stateMutability": "view",
      "type": "function",
      "constant": true
    },
    {
      "inputs": [
        {
          "internalType": "uint256",
          "name": "",
          "type": "uint256"
        }
      ],
      "name": "proposals",
      "outputs": [
        {
          "internalType": "string",
          "name": "purpose",
          "type": "string"
        },
        {
          "internalType": "uint256",
          "name": "amount",
          "type": "uint256"
        },
        {
          "internalType": "address",
          "name": "recipient",
          "type": "address"
        },
        {
          "internalType": "uint256",
          "name": "id",
          "type": "uint256"
        },
        {
          "internalType": "uint256",
          "name": "votes",
          "type": "uint256"
        },
        {
          "internalType": "uint256",
          "name": "end",
          "type": "uint256"
        },
        {
          "internalType": "bool",
          "name": "isExecuted",
          "type": "bool"
        }
      ],
      "stateMutability": "view",
      "type": "function",
      "constant": true
    },
    {
      "inputs": [],
      "name": "quorum",
      "outputs": [
        {
          "internalType": "uint256",
          "name": "",
          "type": "uint256"
        }
      ],
      "stateMutability": "view",
      "type": "function",
      "constant": true
    },
    {
      "inputs": [],
      "name": "voteTime",
      "outputs": [
        {
          "internalType": "uint256",
          "name": "",
          "type": "uint256"
        }
      ],
      "stateMutability": "view",
      "type": "function",
      "constant": true
    },
    {
      "inputs": [
        {
          "internalType": "string",
          "name": "_purpose",
          "type": "string"
        },
        {
          "internalType": "uint256",
          "name": "_amount",
          "type": "uint256"
        },
        {
          "internalType": "address",
          "name": "_recipient",
          "type": "address"
        },
        {
          "internalType": "uint256",
          "name": "_Endin",
          "type": "uint256"
        }
      ],
      "name": "createProposal",
      "outputs": [],
      "stateMutability": "nonpayable",
      "type": "function"
    },
    {
      "inputs": [],
      "name": "GetProposalList",
      "outputs": [
        {
          "components": [
            {
              "internalType": "string",
              "name": "purpose",
              "type": "string"
            },
            {
              "internalType": "uint256",
              "name": "amount",
              "type": "uint256"
            },
            {
              "internalType": "address",
              "name": "recipient",
              "type": "address"
            },
            {
              "internalType": "uint256",
              "name": "id",
              "type": "uint256"
            },
            {
              "internalType": "uint256",
              "name": "votes",
              "type": "uint256"
            },
            {
              "internalType": "uint256",
              "name": "end",
              "type": "uint256"
            },
            {
              "internalType": "bool",
              "name": "isExecuted",
              "type": "bool"
            }
          ],
          "internalType": "struct DAO.Proposal[]",
          "name": "",
          "type": "tuple[]"
        }
      ],
      "stateMutability": "view",
      "type": "function",
      "constant": true
    },
    {
      "inputs": [
        {
          "internalType": "uint256",
          "name": "_id",
          "type": "uint256"
        }
      ],
      "name": "executeProposal",
      "outputs": [
        {
          "internalType": "bool",
          "name": "",
          "type": "bool"
        }
      ],
      "stateMutability": "nonpayable",
      "type": "function"
    },
    {
      "inputs": [],
      "name": "Donate",
      "outputs": [],
      "stateMutability": "payable",
      "type": "function",
      "payable": true
    },
    {
      "inputs": [
        {
          "internalType": "uint256",
          "name": "_id",
          "type": "uint256"
        }
      ],
      "name": "Vote",
      "outputs": [
        {
          "internalType": "bool",
          "name": "",
          "type": "bool"
        }
      ],
      "stateMutability": "nonpayable",
      "type": "function"
    },
    {
      "inputs": [
        {
          "internalType": "address",
          "name": "TransferTo",
          "type": "address"
        },
        {
          "internalType": "uint256",
          "name": "ShareCount",
          "type": "uint256"
        }
      ],
      "name": "TransferShare",
      "outputs": [],
      "stateMutability": "nonpayable",
      "type": "function"
    },
    {
      "inputs": [
        {
          "internalType": "uint256",
          "name": "_ShareCount",
          "type": "uint256"
        }
      ],
      "name": "RedeemShare",
      "outputs": [],
      "stateMutability": "nonpayable",
      "type": "function"
    }
  ],
  "bytecode": "0x608060405234801561000f575f80fd5b5060336001819055503360025f6101000a81548173ffffffffffffffffffffffffffffffffffffffff021916908373ffffffffffffffffffffffffffffffffffffffff160217905550612b0e806100655f395ff3fe6080604052600436106100f2575f3560e01c80638abb1e7411610089578063c84f95bf11610058578063c84f95bf14610338578063cee2a9cf14610360578063d917deb51461039c578063dcd6a5cd146103a6576100f2565b80638abb1e741461027e5780638ee36f05146102a8578063b4c62192146102e4578063bcf93dd61461030e576100f2565b806329f27577116100c557806329f27577146101c6578063481c6a75146102025780635490a8821461022c57806370a8585d14610256576100f2565b8063013cf08b146100f65780630d61b519146101385780631703a0181461017457806317aadb141461019e575b5f80fd5b348015610101575f80fd5b5061011c60048036038101906101179190611bb8565b6103e2565b60405161012f9796959493929190611cd5565b60405180910390f35b348015610143575f80fd5b5061015e60048036038101906101599190611bb8565b6104d1565b60405161016b9190611d49565b60405180910390f35b34801561017f575f80fd5b506101886107ff565b6040516101959190611d62565b60405180910390f35b3480156101a9575f80fd5b506101c460048036038101906101bf9190611bb8565b610805565b005b3480156101d1575f80fd5b506101ec60048036038101906101e79190611bb8565b610c42565b6040516101f99190611d7b565b60405180910390f35b34801561020d575f80fd5b50610216610c7d565b6040516102239190611d7b565b60405180910390f35b348015610237575f80fd5b50610240610ca2565b60405161024d9190611d62565b60405180910390f35b348015610261575f80fd5b5061027c60048036038101906102779190611eea565b610ca8565b005b348015610289575f80fd5b50610292610eae565b60405161029f9190611d62565b60405180910390f35b3480156102b3575f80fd5b506102ce60048036038101906102c99190611f6a565b610eb4565b6040516102db9190611d49565b60405180910390f35b3480156102ef575f80fd5b506102f8610ede565b6040516103059190612171565b60405180910390f35b348015610319575f80fd5b506103226110c0565b60405161032f9190611d62565b60405180910390f35b348015610343575f80fd5b5061035e60048036038101906103599190611f6a565b6110c5565b005b34801561036b575f80fd5b5061038660048036038101906103819190612191565b61166d565b6040516103939190611d49565b60405180910390f35b6103a461168a565b005b3480156103b1575f80fd5b506103cc60048036038101906103c79190611bb8565b611857565b6040516103d99190611d49565b60405180910390f35b600a602052805f5260405f205f91509050805f018054610401906121e9565b80601f016020809104026020016040519081016040528092919081815260200182805461042d906121e9565b80156104785780601f1061044f57610100808354040283529160200191610478565b820191905f5260205f20905b81548152906001019060200180831161045b57829003601f168201915b505050505090806001015490806002015f9054906101000a900473ffffffffffffffffffffffffffffffffffffffff1690806003015490806004015490806005015490806006015f9054906101000a900460ff16905087565b5f60025f9054906101000a900473ffffffffffffffffffffffffffffffffffffffff1673ffffffffffffffffffffffffffffffffffffffff163373ffffffffffffffffffffffffffffffffffffffff1614610561576040517f08c379a000000000000000000000000000000000000000000000000000000000815260040161055890612263565b60405180910390fd5b5f1515600a5f8481526020019081526020015f206006015f9054906101000a900460ff161515146105c7576040517f08c379a00000000000000000000000000000000000000000000000000000000081526004016105be906122cb565b60405180910390fd5b6001546004546064600a5f8681526020019081526020015f20600401546105ee9190612316565b6105f89190612384565b1015610639576040517f08c379a0000000000000000000000000000000000000000000000000000000008152600401610630906123fe565b60405180910390fd5b6001600a5f8481526020019081526020015f206006015f6101000a81548160ff021916908315150217905550600a5f8381526020019081526020015f206001015460055f82825461068a919061241c565b92505081905550600554600a5f8481526020019081526020015f206001015411156106ea576040517f08c379a00000000000000000000000000000000000000000000000000000000081526004016106e190612499565b60405180910390fd5b600a5f8381526020019081526020015f206002015f9054906101000a900473ffffffffffffffffffffffffffffffffffffffff1673ffffffffffffffffffffffffffffffffffffffff166108fc600a5f8581526020019081526020015f206001015490811502906040515f60405180830381858888f19350505050158015610774573d5f803e3d5ffd5b50817fe285e47f4804f679760aa4e907da874045af16436d55df64b64ffd9ca2539dfa600a5f8581526020019081526020015f2060010154600a5f8681526020019081526020015f206002015f9054906101000a900473ffffffffffffffffffffffffffffffffffffffff166040516107ee9291906124b7565b60405180910390a260019050919050565b60015481565b60085f3373ffffffffffffffffffffffffffffffffffffffff1673ffffffffffffffffffffffffffffffffffffffff1681526020019081526020015f205f9054906101000a900460ff1661088e576040517f08c379a000000000000000000000000000000000000000000000000000000000815260040161088590612528565b60405180910390fd5b8060075f3373ffffffffffffffffffffffffffffffffffffffff1673ffffffffffffffffffffffffffffffffffffffff1681526020019081526020015f2054101561090e576040517f08c379a000000000000000000000000000000000000000000000000000000000815260040161090590612590565b60405180910390fd5b8060075f3373ffffffffffffffffffffffffffffffffffffffff1673ffffffffffffffffffffffffffffffffffffffff1681526020019081526020015f205f82825461095a919061241c565b925050819055505f60075f3373ffffffffffffffffffffffffffffffffffffffff1673ffffffffffffffffffffffffffffffffffffffff1681526020019081526020015f205403610b94575f60085f3373ffffffffffffffffffffffffffffffffffffffff1673ffffffffffffffffffffffffffffffffffffffff1681526020019081526020015f205f6101000a81548160ff0219169083151502179055505f5b600680549050811015610b92573373ffffffffffffffffffffffffffffffffffffffff1660068281548110610a3357610a326125ae565b5b905f5260205f20015f9054906101000a900473ffffffffffffffffffffffffffffffffffffffff1673ffffffffffffffffffffffffffffffffffffffff1603610b225760066001600680549050610a8a919061241c565b81548110610a9b57610a9a6125ae565b5b905f5260205f20015f9054906101000a900473ffffffffffffffffffffffffffffffffffffffff1660068281548110610ad757610ad66125ae565b5b905f5260205f20015f6101000a81548173ffffffffffffffffffffffffffffffffffffffff021916908373ffffffffffffffffffffffffffffffffffffffff16021790555050610c3f565b6001600680549050610b34919061241c565b8103610b7f576006805480610b4c57610b4b6125db565b5b600190038181905f5260205f20015f6101000a81549073ffffffffffffffffffffffffffffffffffffffff021916905590555b8080610b8a90612608565b9150506109fb565b505b8060055f828254610ba5919061241c565b925050819055503373ffffffffffffffffffffffffffffffffffffffff166108fc8290811502906040515f60405180830381858888f19350505050158015610bef573d5f803e3d5ffd5b503373ffffffffffffffffffffffffffffffffffffffff167f5460477ab9e47c541080b6d90d7a5ab2e64355534a42071670aba93c4d17be4882604051610c369190611d62565b60405180910390a25b50565b60068181548110610c51575f80fd5b905f5260205f20015f915054906101000a900473ffffffffffffffffffffffffffffffffffffffff1681565b60025f9054906101000a900473ffffffffffffffffffffffffffffffffffffffff1681565b60055481565b60025f9054906101000a900473ffffffffffffffffffffffffffffffffffffffff1673ffffffffffffffffffffffffffffffffffffffff163373ffffffffffffffffffffffffffffffffffffffff1614610d37576040517f08c379a0000000000000000000000000000000000000000000000000000000008152600401610d2e90612263565b60405180910390fd5b6040518060e001604052808581526020018481526020018373ffffffffffffffffffffffffffffffffffffffff16815260200160035481526020015f81526020018242610d84919061264f565b81526020015f1515815250600a5f60035481526020019081526020015f205f820151815f019081610db5919061281f565b50602082015181600101556040820151816002015f6101000a81548173ffffffffffffffffffffffffffffffffffffffff021916908373ffffffffffffffffffffffffffffffffffffffff160217905550606082015181600301556080820151816004015560a0820151816005015560c0820151816006015f6101000a81548160ff0219169083151502179055509050506003547f8d35b72fd3f082426bb4cd3801396bf51e9e77a2d5cd5ecec078b485a107b71f8585854286610e79919061264f565b604051610e8994939291906128ee565b60405180910390a260035f815480929190610ea390612608565b919050555050505050565b60045481565b6009602052815f5260405f20602052805f5260405f205f915091509054906101000a900460ff1681565b60605f60035467ffffffffffffffff811115610efd57610efc611d9c565b5b604051908082528060200260200182016040528015610f3657816020015b610f23611b25565b815260200190600190039081610f1b5790505b5090505f5b6003548110156110b857600a5f8281526020019081526020015f206040518060e00160405290815f82018054610f70906121e9565b80601f0160208091040260200160405190810160405280929190818152602001828054610f9c906121e9565b8015610fe75780601f10610fbe57610100808354040283529160200191610fe7565b820191905f5260205f20905b815481529060010190602001808311610fca57829003601f168201915b5050505050815260200160018201548152602001600282015f9054906101000a900473ffffffffffffffffffffffffffffffffffffffff1673ffffffffffffffffffffffffffffffffffffffff1673ffffffffffffffffffffffffffffffffffffffff168152602001600382015481526020016004820154815260200160058201548152602001600682015f9054906101000a900460ff16151515158152505082828151811061109a576110996125ae565b5b602002602001018190525080806110b090612608565b915050610f3b565b508091505090565b5f5481565b60085f3373ffffffffffffffffffffffffffffffffffffffff1673ffffffffffffffffffffffffffffffffffffffff1681526020019081526020015f205f9054906101000a900460ff1661114e576040517f08c379a000000000000000000000000000000000000000000000000000000000815260040161114590612528565b60405180910390fd5b8060075f3373ffffffffffffffffffffffffffffffffffffffff1673ffffffffffffffffffffffffffffffffffffffff1681526020019081526020015f205410156111ce576040517f08c379a00000000000000000000000000000000000000000000000000000000081526004016111c590612590565b60405180910390fd5b3373ffffffffffffffffffffffffffffffffffffffff168273ffffffffffffffffffffffffffffffffffffffff161415801561123657505f73ffffffffffffffffffffffffffffffffffffffff168273ffffffffffffffffffffffffffffffffffffffff1614155b611275576040517f08c379a000000000000000000000000000000000000000000000000000000000815260040161126c90612982565b60405180910390fd5b8060075f3373ffffffffffffffffffffffffffffffffffffffff1673ffffffffffffffffffffffffffffffffffffffff1681526020019081526020015f205f8282546112c1919061241c565b925050819055508060075f8473ffffffffffffffffffffffffffffffffffffffff1673ffffffffffffffffffffffffffffffffffffffff1681526020019081526020015f205f828254611314919061264f565b92505081905550600160085f8473ffffffffffffffffffffffffffffffffffffffff1673ffffffffffffffffffffffffffffffffffffffff1681526020019081526020015f205f6101000a81548160ff021916908315150217905550600682908060018154018082558091505060019003905f5260205f20015f9091909190916101000a81548173ffffffffffffffffffffffffffffffffffffffff021916908373ffffffffffffffffffffffffffffffffffffffff1602179055505f60075f3373ffffffffffffffffffffffffffffffffffffffff1673ffffffffffffffffffffffffffffffffffffffff1681526020019081526020015f205403611603575f60085f3373ffffffffffffffffffffffffffffffffffffffff1673ffffffffffffffffffffffffffffffffffffffff1681526020019081526020015f205f6101000a81548160ff0219169083151502179055505f5b600680549050811015611601573373ffffffffffffffffffffffffffffffffffffffff16600682815481106114a2576114a16125ae565b5b905f5260205f20015f9054906101000a900473ffffffffffffffffffffffffffffffffffffffff1673ffffffffffffffffffffffffffffffffffffffff160361159157600660016006805490506114f9919061241c565b8154811061150a576115096125ae565b5b905f5260205f20015f9054906101000a900473ffffffffffffffffffffffffffffffffffffffff1660068281548110611546576115456125ae565b5b905f5260205f20015f6101000a81548173ffffffffffffffffffffffffffffffffffffffff021916908373ffffffffffffffffffffffffffffffffffffffff16021790555050611669565b60016006805490506115a3919061241c565b81036115ee5760068054806115bb576115ba6125db565b5b600190038181905f5260205f20015f6101000a81549073ffffffffffffffffffffffffffffffffffffffff021916905590555b80806115f990612608565b91505061146a565b505b8173ffffffffffffffffffffffffffffffffffffffff163373ffffffffffffffffffffffffffffffffffffffff167f99c01cd4f8275976ef33d24514b1694c8a9d5730d92e26996834343e09778e99836040516116609190611d62565b60405180910390a35b5050565b6008602052805f5260405f205f915054906101000a900460ff1681565b6101f43410156116cf576040517f08c379a00000000000000000000000000000000000000000000000000000000081526004016116c6906129ea565b60405180910390fd5b3460045f8282546116e0919061264f565b92505081905550600160085f3373ffffffffffffffffffffffffffffffffffffffff1673ffffffffffffffffffffffffffffffffffffffff1681526020019081526020015f205f6101000a81548160ff0219169083151502179055503460075f3373ffffffffffffffffffffffffffffffffffffffff1673ffffffffffffffffffffffffffffffffffffffff1681526020019081526020015f205f828254611788919061264f565b92505081905550600633908060018154018082558091505060019003905f5260205f20015f9091909190916101000a81548173ffffffffffffffffffffffffffffffffffffffff021916908373ffffffffffffffffffffffffffffffffffffffff1602179055503460055f828254611800919061264f565b925050819055503373ffffffffffffffffffffffffffffffffffffffff167f264f630d9efa0d07053a31163641d9fcc0adafc9d9e76f1c37c2ce3a558d2c523460405161184d9190611d62565b60405180910390a2565b5f60085f3373ffffffffffffffffffffffffffffffffffffffff1673ffffffffffffffffffffffffffffffffffffffff1681526020019081526020015f205f9054906101000a900460ff166118e1576040517f08c379a00000000000000000000000000000000000000000000000000000000081526004016118d890612528565b60405180910390fd5b42600a5f8481526020019081526020015f20600501541015611938576040517f08c379a000000000000000000000000000000000000000000000000000000000815260040161192f90612a52565b60405180910390fd5b5f151560095f3373ffffffffffffffffffffffffffffffffffffffff1673ffffffffffffffffffffffffffffffffffffffff1681526020019081526020015f205f8481526020019081526020015f205f9054906101000a900460ff161515146119d6576040517f08c379a00000000000000000000000000000000000000000000000000000000081526004016119cd90612aba565b60405180910390fd5b600160095f3373ffffffffffffffffffffffffffffffffffffffff1673ffffffffffffffffffffffffffffffffffffffff1681526020019081526020015f205f8481526020019081526020015f205f6101000a81548160ff02191690831515021790555060075f3373ffffffffffffffffffffffffffffffffffffffff1673ffffffffffffffffffffffffffffffffffffffff1681526020019081526020015f2054600a5f8481526020019081526020015f20600401819055503373ffffffffffffffffffffffffffffffffffffffff16827fe7ee74ca1f4bb1b82b14f87794c45b3e59c39e372b862fb97a6316b43355b69e60075f3373ffffffffffffffffffffffffffffffffffffffff1673ffffffffffffffffffffffffffffffffffffffff1681526020019081526020015f2054604051611b149190611d62565b60405180910390a360019050919050565b6040518060e00160405280606081526020015f81526020015f73ffffffffffffffffffffffffffffffffffffffff1681526020015f81526020015f81526020015f81526020015f151581525090565b5f604051905090565b5f80fd5b5f80fd5b5f819050919050565b611b9781611b85565b8114611ba1575f80fd5b50565b5f81359050611bb281611b8e565b92915050565b5f60208284031215611bcd57611bcc611b7d565b5b5f611bda84828501611ba4565b91505092915050565b5f81519050919050565b5f82825260208201905092915050565b5f5b83811015611c1a578082015181840152602081019050611bff565b5f8484015250505050565b5f601f19601f8301169050919050565b5f611c3f82611be3565b611c498185611bed565b9350611c59818560208601611bfd565b611c6281611c25565b840191505092915050565b611c7681611b85565b82525050565b5f73ffffffffffffffffffffffffffffffffffffffff82169050919050565b5f611ca582611c7c565b9050919050565b611cb581611c9b565b82525050565b5f8115159050919050565b611ccf81611cbb565b82525050565b5f60e0820190508181035f830152611ced818a611c35565b9050611cfc6020830189611c6d565b611d096040830188611cac565b611d166060830187611c6d565b611d236080830186611c6d565b611d3060a0830185611c6d565b611d3d60c0830184611cc6565b98975050505050505050565b5f602082019050611d5c5f830184611cc6565b92915050565b5f602082019050611d755f830184611c6d565b92915050565b5f602082019050611d8e5f830184611cac565b92915050565b5f80fd5b5f80fd5b7f4e487b71000000000000000000000000000000000000000000000000000000005f52604160045260245ffd5b611dd282611c25565b810181811067ffffffffffffffff82111715611df157611df0611d9c565b5b80604052505050565b5f611e03611b74565b9050611e0f8282611dc9565b919050565b5f67ffffffffffffffff821115611e2e57611e2d611d9c565b5b611e3782611c25565b9050602081019050919050565b828183375f83830152505050565b5f611e64611e5f84611e14565b611dfa565b905082815260208101848484011115611e8057611e7f611d98565b5b611e8b848285611e44565b509392505050565b5f82601f830112611ea757611ea6611d94565b5b8135611eb7848260208601611e52565b91505092915050565b611ec981611c9b565b8114611ed3575f80fd5b50565b5f81359050611ee481611ec0565b92915050565b5f805f8060808587031215611f0257611f01611b7d565b5b5f85013567ffffffffffffffff811115611f1f57611f1e611b81565b5b611f2b87828801611e93565b9450506020611f3c87828801611ba4565b9350506040611f4d87828801611ed6565b9250506060611f5e87828801611ba4565b91505092959194509250565b5f8060408385031215611f8057611f7f611b7d565b5b5f611f8d85828601611ed6565b9250506020611f9e85828601611ba4565b9150509250929050565b5f81519050919050565b5f82825260208201905092915050565b5f819050602082019050919050565b5f82825260208201905092915050565b5f611feb82611be3565b611ff58185611fd1565b9350612005818560208601611bfd565b61200e81611c25565b840191505092915050565b61202281611b85565b82525050565b61203181611c9b565b82525050565b61204081611cbb565b82525050565b5f60e083015f8301518482035f8601526120608282611fe1565b91505060208301516120756020860182612019565b5060408301516120886040860182612028565b50606083015161209b6060860182612019565b5060808301516120ae6080860182612019565b5060a08301516120c160a0860182612019565b5060c08301516120d460c0860182612037565b508091505092915050565b5f6120ea8383612046565b905092915050565b5f602082019050919050565b5f61210882611fa8565b6121128185611fb2565b93508360208202850161212485611fc2565b805f5b8581101561215f578484038952815161214085826120df565b945061214b836120f2565b925060208a01995050600181019050612127565b50829750879550505050505092915050565b5f6020820190508181035f83015261218981846120fe565b905092915050565b5f602082840312156121a6576121a5611b7d565b5b5f6121b384828501611ed6565b91505092915050565b7f4e487b71000000000000000000000000000000000000000000000000000000005f52602260045260245ffd5b5f600282049050600182168061220057607f821691505b602082108103612213576122126121bc565b5b50919050565b7f4f6e6c79206d616e616765722063616e206163636573730000000000000000005f82015250565b5f61224d601783611bed565b915061225882612219565b602082019050919050565b5f6020820190508181035f83015261227a81612241565b9050919050565b7f50726f706f73616c20416c7265616479204578656375746564000000000000005f82015250565b5f6122b5601983611bed565b91506122c082612281565b602082019050919050565b5f6020820190508181035f8301526122e2816122a9565b9050919050565b7f4e487b71000000000000000000000000000000000000000000000000000000005f52601160045260245ffd5b5f61232082611b85565b915061232b83611b85565b925082820261233981611b85565b915082820484148315176123505761234f6122e9565b5b5092915050565b7f4e487b71000000000000000000000000000000000000000000000000000000005f52601260045260245ffd5b5f61238e82611b85565b915061239983611b85565b9250826123a9576123a8612357565b5b828204905092915050565b7f4d616a6f7269747920646f6573206e6f7420737570706f7274000000000000005f82015250565b5f6123e8601983611bed565b91506123f3826123b4565b602082019050919050565b5f6020820190508181035f830152612415816123dc565b9050919050565b5f61242682611b85565b915061243183611b85565b9250828203905081811115612449576124486122e9565b5b92915050565b7f496e73756666696369656e742042616c616e63650000000000000000000000005f82015250565b5f612483601483611bed565b915061248e8261244f565b602082019050919050565b5f6020820190508181035f8301526124b081612477565b9050919050565b5f6040820190506124ca5f830185611c6d565b6124d76020830184611cac565b9392505050565b7f4f6e6c7920696e766573746f72732063616e20616363657373000000000000005f82015250565b5f612512601983611bed565b915061251d826124de565b602082019050919050565b5f6020820190508181035f83015261253f81612506565b9050919050565b7f496e73756666696369656e7420536861726573000000000000000000000000005f82015250565b5f61257a601383611bed565b915061258582612546565b602082019050919050565b5f6020820190508181035f8301526125a78161256e565b9050919050565b7f4e487b71000000000000000000000000000000000000000000000000000000005f52603260045260245ffd5b7f4e487b71000000000000000000000000000000000000000000000000000000005f52603160045260245ffd5b5f61261282611b85565b91507fffffffffffffffffffffffffffffffffffffffffffffffffffffffffffffffff8203612644576126436122e9565b5b600182019050919050565b5f61265982611b85565b915061266483611b85565b925082820190508082111561267c5761267b6122e9565b5b92915050565b5f819050815f5260205f209050919050565b5f6020601f8301049050919050565b5f82821b905092915050565b5f600883026126de7fffffffffffffffffffffffffffffffffffffffffffffffffffffffffffffffff826126a3565b6126e886836126a3565b95508019841693508086168417925050509392505050565b5f819050919050565b5f61272361271e61271984611b85565b612700565b611b85565b9050919050565b5f819050919050565b61273c83612709565b6127506127488261272a565b8484546126af565b825550505050565b5f90565b612764612758565b61276f818484612733565b505050565b5b81811015612792576127875f8261275c565b600181019050612775565b5050565b601f8211156127d7576127a881612682565b6127b184612694565b810160208510156127c0578190505b6127d46127cc85612694565b830182612774565b50505b505050565b5f82821c905092915050565b5f6127f75f19846008026127dc565b1980831691505092915050565b5f61280f83836127e8565b9150826002028217905092915050565b61282882611be3565b67ffffffffffffffff81111561284157612840611d9c565b5b61284b82546121e9565b612856828285612796565b5f60209050601f831160018114612887575f8415612875578287015190505b61287f8582612804565b8655506128e6565b601f19841661289586612682565b5f5b828110156128bc57848901518255600182019150602085019450602081019050612897565b868310156128d957848901516128d5601f8916826127e8565b8355505b6001600288020188555050505b505050505050565b5f6080820190508181035f8301526129068187611c35565b90506129156020830186611c6d565b6129226040830185611cac565b61292f6060830184611c6d565b95945050505050565b7f496e76616c6964204164647265737300000000000000000000000000000000005f82015250565b5f61296c600f83611bed565b915061297782612938565b602082019050919050565b5f6020820190508181035f83015261299981612960565b9050919050565b7f53656e64204174206c65617374203530302057656900000000000000000000005f82015250565b5f6129d4601583611bed565b91506129df826129a0565b602082019050919050565b5f6020820190508181035f830152612a01816129c8565b9050919050565b7f566f74696e672054696d6520456e6465640000000000000000000000000000005f82015250565b5f612a3c601183611bed565b9150612a4782612a08565b602082019050919050565b5f6020820190508181035f830152612a6981612a30565b9050919050565b7f416c726561647920566f746564000000000000000000000000000000000000005f82015250565b5f612aa4600d83611bed565b9150612aaf82612a70565b602082019050919050565b5f6020820190508181035f830152612ad181612a98565b905091905056fea2646970667358221220996b9f15fabeac2979b5f72845fe7e68023b6af1925b045c3bdae22a0854f73464736f6c63430008150033",
  "immutableReferences": {},
  "source": "// SPDX-License-Identifier: GPL-3.0\n\npragma solidity >=0.7.0 <0.9.0;\n\ncontract DAO {\n    struct Proposal {   \n        string purpose;        // Purpose or description of the proposal\n        uint256 amount;        // Amount of Ether associated with the proposal.\n        address recipient;     // Corrected \"receipient\" to \"recipient\"\n        uint256 id;            // Unique identifier for the proposal.\n        uint256 votes;         // Total votes reveived by the proposal.\n        uint256 end;           // Timestamp indicating when the proposal's voting ends.\n        bool isExecuted;       // Flag indicating whether the proposal has been executed.\n    }\n    uint256 public voteTime;                        // Time allocated for vating on proposals.\n    uint256 public quorum;                          // Percentage of votes required for a proposal to pass\n    address public manager;                         // Address of the contract manager (creator).\n    uint256 id;                                     // Unique identifier for proposals.\n    uint256 public TotalShares;                     // Total shares held by all investors.\n    uint256 public RemainingFund;                   // Remaaining Ether in the contract's fund.\n    address[] public InvestorList;                  // List of addresses of all investors.\n\n    mapping(address => uint) SharesOf;                          // Mapping of shares held by each investor.\n    mapping(address => bool) public isInvestor;                 // Mapping of Addresses to investor status.\n    mapping(address => mapping(uint256 => bool)) public isVoted;// Mapping of addresses and proposals voted on.\n    mapping(uint256 => Proposal) public proposals;              // Mapping of proposal IDs to proposal details.\n\n    event ProposalCreated( uint256 indexed id, string purpose, uint256 amount, address recipient, uint256 end );        // Emits information about a newly created proposal.\n    event VoteCasted(uint256 indexed proposalId, address indexed voter, uint256 votes);                                 // Emits when an investor casts their vote on a proposal.\n    event ProposalExecuted(uint256 indexed proposalId, uint256 amount, address recipient);                              // Emits the execution of a proposal, including details of the transaction.\n    event SharesTransferred(address indexed from, address indexed to, uint256 shares);                                  // Emits the transfer of shares between investors.\n    event RedeemShares(address indexed investor, uint256 amount);                                        // Emits when an investor redeems shares and withdraws funds.\n    event DonationReceived(address indexed donor, uint256 amount);                                                      // Emits when a donation is made to the contract.\n\n\n    constructor() {\n        quorum = 51;\n        manager = msg.sender; // The contract creator is the initial manager.\n    }\n\n    modifier onlyManager() {        // Modifier to restrict access to only the contract manager.\n        require(msg.sender == manager, \"Only manager can access\");\n        _;\n    }\n\n    modifier onlyInvestor() {       // Modifier to restrict access to only investors.\n        require(isInvestor[msg.sender], \"Only investors can access\");\n        _;\n    }\n\n    // Function to create a proposal.\n    function createProposal(\n        string memory _purpose,\n        uint256 _amount,\n        address _recipient, // Corrected \"receipient\" to \"recipient\"\n        uint256 _Endin\n    ) public onlyManager {\n        proposals[id] = Proposal(\n            _purpose,\n            _amount,\n            _recipient,\n            id,\n            0,\n            block.timestamp + _Endin,\n            false\n        );\n        emit ProposalCreated( id,  _purpose,  _amount,  _recipient,  _Endin + block.timestamp ); \n        id++;\n    }\n\n    // Function to retrieve a list of all proposals.\n    function GetProposalList() public view returns (Proposal[] memory) {\n        Proposal[] memory arr = new Proposal[](id);\n        for (uint x; x < id; x++) {\n            arr[x] = proposals[x];\n        }\n        return arr;\n    }\n\n    // Function to execute a proposal.\n    function executeProposal(uint256 _id) public onlyManager returns (bool) {\n        require(proposals[_id].isExecuted == false, \"Proposal Already Executed\");\n        require(\n            ((proposals[_id].votes * 100) / TotalShares) >= quorum,\n            \"Majority does not support\"\n        );\n        proposals[_id].isExecuted = true;\n        RemainingFund -= proposals[_id].amount;\n        require(proposals[_id].amount <= RemainingFund, \"Insufficient Balance\");\n        payable(proposals[_id].recipient).transfer(proposals[_id].amount);\n        emit ProposalExecuted(_id, proposals[_id].amount, proposals[_id].recipient);\n        return true;\n    }\n\n    // Function for users to donate to the contract.\n    function Donate() public payable {\n        require(msg.value >= 500, \"Send At least 500 Wei\");\n        TotalShares += msg.value;\n        isInvestor[msg.sender] = true;\n        SharesOf[msg.sender] += msg.value;\n        InvestorList.push(msg.sender);\n        RemainingFund += msg.value;\n        emit DonationReceived(msg.sender, msg.value);\n    }\n\n    // Function for investors to vote on a proposal.\n    function Vote(uint _id) public onlyInvestor returns (bool) {\n        require(proposals[_id].end >= block.timestamp, \"Voting Time Ended\");\n        require(isVoted[msg.sender][_id] == false, \"Already Voted\");\n        isVoted[msg.sender][_id] = true;\n        proposals[_id].votes = SharesOf[msg.sender];\n        emit VoteCasted( _id,  msg.sender,  SharesOf[msg.sender]); \n        return true;\n    }\n\n    // Function to transfer shares from one investor to another.\n    function TransferShare(address TransferTo, uint ShareCount) onlyInvestor public {\n        require(SharesOf[msg.sender] >= ShareCount, \"Insufficient Shares\");\n        require(TransferTo != msg.sender && TransferTo != address(0), \"Invalid Address\");\n        SharesOf[msg.sender] -= ShareCount;\n        SharesOf[TransferTo] += ShareCount; // Corrected to add shares to the recipient\n        isInvestor[TransferTo] = true;\n        InvestorList.push(TransferTo);\n        if (SharesOf[msg.sender] == 0) {\n            isInvestor[msg.sender] = false;\n            for (uint a; a < InvestorList.length; a++) {\n                if (InvestorList[a] == msg.sender) {\n                    InvestorList[a] = InvestorList[InvestorList.length - 1];\n                    return;\n                } else if (a == InvestorList.length - 1) {\n                    InvestorList.pop();\n                }\n            }\n        }\n        emit SharesTransferred(msg.sender, TransferTo, ShareCount);\n        \n    }\n\n    // Function to redeem shares and withdraw funds.\n    function RedeemShare(uint _ShareCount) public onlyInvestor {\n        require(SharesOf[msg.sender] >= _ShareCount, \"Insufficient Shares\");\n        SharesOf[msg.sender] -= _ShareCount;\n        if (SharesOf[msg.sender] == 0) {\n            isInvestor[msg.sender] = false;\n            for (uint a; a < InvestorList.length; a++) {\n                if (InvestorList[a] == msg.sender) {\n                    InvestorList[a] = InvestorList[InvestorList.length - 1];\n                    return;\n                } else if (a == InvestorList.length - 1) {\n                    InvestorList.pop();\n                }\n            }\n        }\n        RemainingFund -= _ShareCount;\n        payable(msg.sender).transfer(_ShareCount);\n        emit RedeemShares(msg.sender, _ShareCount);\n        \n    }\n}\n",
  "sourcePath": "C:\\Users\\akash\\OneDrive\\Desktop\\BlockChain_Projects\\Git_DAO\\dao\\contracts\\Dao.sol",
  "compiler": {
    "name": "solc",
    "version": "0.8.21+commit.d9974bed.Emscripten.clang"
  },
  "schemaVersion": "3.4.16",
  "updatedAt": "2023-11-04T10:17:02.763Z",
  "networkType": "ethereum",
  "devdoc": {
    "kind": "dev",
    "methods": {},
    "version": 1
  },
  "userdoc": {
    "kind": "user",
    "methods": {},
    "version": 1
  }
}