{
  "contractName": "DAO",
  "abi": [
    {
      "inputs": [],
      "stateMutability": "nonpayable",
      "type": "constructor"
    },
    {
      "anonymous": false,
      "inputs": [
        {
          "indexed": true,
          "internalType": "address",
          "name": "donor",
          "type": "address"
        },
        {
          "indexed": false,
          "internalType": "uint256",
          "name": "amount",
          "type": "uint256"
        }
      ],
      "name": "DonationReceived",
      "type": "event"
    },
    {
      "anonymous": false,
      "inputs": [
        {
          "indexed": true,
          "internalType": "uint256",
          "name": "id",
          "type": "uint256"
        },
        {
          "indexed": false,
          "internalType": "string",
          "name": "purpose",
          "type": "string"
        },
        {
          "indexed": false,
          "internalType": "uint256",
          "name": "amount",
          "type": "uint256"
        },
        {
          "indexed": false,
          "internalType": "address",
          "name": "recipient",
          "type": "address"
        },
        {
          "indexed": false,
          "internalType": "uint256",
          "name": "end",
          "type": "uint256"
        }
      ],
      "name": "ProposalCreated",
      "type": "event"
    },
    {
      "anonymous": false,
      "inputs": [
        {
          "indexed": true,
          "internalType": "uint256",
          "name": "proposalId",
          "type": "uint256"
        },
        {
          "indexed": false,
          "internalType": "uint256",
          "name": "amount",
          "type": "uint256"
        },
        {
          "indexed": false,
          "internalType": "address",
          "name": "recipient",
          "type": "address"
        }
      ],
      "name": "ProposalExecuted",
      "type": "event"
    },
    {
      "anonymous": false,
      "inputs": [
        {
          "indexed": true,
          "internalType": "address",
          "name": "investor",
          "type": "address"
        },
        {
          "indexed": false,
          "internalType": "uint256",
          "name": "amount",
          "type": "uint256"
        }
      ],
      "name": "RedeemShares",
      "type": "event"
    },
    {
      "anonymous": false,
      "inputs": [
        {
          "indexed": false,
          "internalType": "string",
          "name": "reason",
          "type": "string"
        }
      ],
      "name": "RequirementError",
      "type": "event"
    },
    {
      "anonymous": false,
      "inputs": [
        {
          "indexed": true,
          "internalType": "address",
          "name": "from",
          "type": "address"
        },
        {
          "indexed": true,
          "internalType": "address",
          "name": "to",
          "type": "address"
        },
        {
          "indexed": false,
          "internalType": "uint256",
          "name": "shares",
          "type": "uint256"
        }
      ],
      "name": "SharesTransferred",
      "type": "event"
    },
    {
      "anonymous": false,
      "inputs": [
        {
          "indexed": true,
          "internalType": "uint256",
          "name": "proposalId",
          "type": "uint256"
        },
        {
          "indexed": true,
          "internalType": "address",
          "name": "voter",
          "type": "address"
        },
        {
          "indexed": false,
          "internalType": "uint256",
          "name": "votes",
          "type": "uint256"
        }
      ],
      "name": "VoteCasted",
      "type": "event"
    },
    {
      "inputs": [
        {
          "internalType": "uint256",
          "name": "",
          "type": "uint256"
        }
      ],
      "name": "InvestorList",
      "outputs": [
        {
          "internalType": "address",
          "name": "",
          "type": "address"
        }
      ],
      "stateMutability": "view",
      "type": "function",
      "constant": true
    },
    {
      "inputs": [],
      "name": "RemainingFund",
      "outputs": [
        {
          "internalType": "uint256",
          "name": "",
          "type": "uint256"
        }
      ],
      "stateMutability": "view",
      "type": "function",
      "constant": true
    },
    {
      "inputs": [
        {
          "internalType": "address",
          "name": "",
          "type": "address"
        }
      ],
      "name": "SharesOf",
      "outputs": [
        {
          "internalType": "uint256",
          "name": "",
          "type": "uint256"
        }
      ],
      "stateMutability": "view",
      "type": "function",
      "constant": true
    },
    {
      "inputs": [],
      "name": "TotalShares",
      "outputs": [
        {
          "internalType": "uint256",
          "name": "",
          "type": "uint256"
        }
      ],
      "stateMutability": "view",
      "type": "function",
      "constant": true
    },
    {
      "inputs": [
        {
          "internalType": "address",
          "name": "",
          "type": "address"
        }
      ],
      "name": "isInvestor",
      "outputs": [
        {
          "internalType": "bool",
          "name": "",
          "type": "bool"
        }
      ],
      "stateMutability": "view",
      "type": "function",
      "constant": true
    },
    {
      "inputs": [
        {
          "internalType": "address",
          "name": "",
          "type": "address"
        },
        {
          "internalType": "uint256",
          "name": "",
          "type": "uint256"
        }
      ],
      "name": "isVoted",
      "outputs": [
        {
          "internalType": "bool",
          "name": "",
          "type": "bool"
        }
      ],
      "stateMutability": "view",
      "type": "function",
      "constant": true
    },
    {
      "inputs": [],
      "name": "manager",
      "outputs": [
        {
          "internalType": "address",
          "name": "",
          "type": "address"
        }
      ],
      "stateMutability": "view",
      "type": "function",
      "constant": true
    },
    {
      "inputs": [
        {
          "internalType": "uint256",
          "name": "",
          "type": "uint256"
        }
      ],
      "name": "proposals",
      "outputs": [
        {
          "internalType": "string",
          "name": "purpose",
          "type": "string"
        },
        {
          "internalType": "uint256",
          "name": "amount",
          "type": "uint256"
        },
        {
          "internalType": "address",
          "name": "recipient",
          "type": "address"
        },
        {
          "internalType": "uint256",
          "name": "id",
          "type": "uint256"
        },
        {
          "internalType": "uint256",
          "name": "votes",
          "type": "uint256"
        },
        {
          "internalType": "uint256",
          "name": "end",
          "type": "uint256"
        },
        {
          "internalType": "bool",
          "name": "isExecuted",
          "type": "bool"
        }
      ],
      "stateMutability": "view",
      "type": "function",
      "constant": true
    },
    {
      "inputs": [],
      "name": "quorum",
      "outputs": [
        {
          "internalType": "uint256",
          "name": "",
          "type": "uint256"
        }
      ],
      "stateMutability": "view",
      "type": "function",
      "constant": true
    },
    {
      "inputs": [],
      "name": "voteTime",
      "outputs": [
        {
          "internalType": "uint256",
          "name": "",
          "type": "uint256"
        }
      ],
      "stateMutability": "view",
      "type": "function",
      "constant": true
    },
    {
      "stateMutability": "payable",
      "type": "receive",
      "payable": true
    },
    {
      "inputs": [
        {
          "internalType": "string",
          "name": "_purpose",
          "type": "string"
        },
        {
          "internalType": "uint256",
          "name": "_amount",
          "type": "uint256"
        },
        {
          "internalType": "address",
          "name": "_recipient",
          "type": "address"
        },
        {
          "internalType": "uint256",
          "name": "_Endin",
          "type": "uint256"
        }
      ],
      "name": "createProposal",
      "outputs": [],
      "stateMutability": "nonpayable",
      "type": "function"
    },
    {
      "inputs": [],
      "name": "GetProposalList",
      "outputs": [
        {
          "components": [
            {
              "internalType": "string",
              "name": "purpose",
              "type": "string"
            },
            {
              "internalType": "uint256",
              "name": "amount",
              "type": "uint256"
            },
            {
              "internalType": "address",
              "name": "recipient",
              "type": "address"
            },
            {
              "internalType": "uint256",
              "name": "id",
              "type": "uint256"
            },
            {
              "internalType": "uint256",
              "name": "votes",
              "type": "uint256"
            },
            {
              "internalType": "uint256",
              "name": "end",
              "type": "uint256"
            },
            {
              "internalType": "bool",
              "name": "isExecuted",
              "type": "bool"
            }
          ],
          "internalType": "struct DAO.Proposal[]",
          "name": "",
          "type": "tuple[]"
        }
      ],
      "stateMutability": "view",
      "type": "function",
      "constant": true
    },
    {
      "inputs": [
        {
          "internalType": "uint256",
          "name": "_id",
          "type": "uint256"
        }
      ],
      "name": "executeProposal",
      "outputs": [
        {
          "internalType": "bool",
          "name": "",
          "type": "bool"
        }
      ],
      "stateMutability": "nonpayable",
      "type": "function"
    },
    {
      "inputs": [],
      "name": "Donate",
      "outputs": [],
      "stateMutability": "payable",
      "type": "function",
      "payable": true
    },
    {
      "inputs": [
        {
          "internalType": "uint256",
          "name": "_id",
          "type": "uint256"
        }
      ],
      "name": "Vote",
      "outputs": [
        {
          "internalType": "bool",
          "name": "",
          "type": "bool"
        }
      ],
      "stateMutability": "nonpayable",
      "type": "function"
    },
    {
      "inputs": [
        {
          "internalType": "address",
          "name": "TransferTo",
          "type": "address"
        },
        {
          "internalType": "uint256",
          "name": "ShareCount",
          "type": "uint256"
        }
      ],
      "name": "TransferShare",
      "outputs": [],
      "stateMutability": "nonpayable",
      "type": "function"
    },
    {
      "inputs": [
        {
          "internalType": "uint256",
          "name": "_ShareCount",
          "type": "uint256"
        }
      ],
      "name": "RedeemShare",
      "outputs": [],
      "stateMutability": "nonpayable",
      "type": "function"
    },
    {
      "inputs": [],
      "name": "getIList",
      "outputs": [
        {
          "internalType": "address[]",
          "name": "",
          "type": "address[]"
        }
      ],
      "stateMutability": "view",
      "type": "function",
      "constant": true
    }
  ],
  "bytecode": "0x6080604052603360015534801561001557600080fd5b5033600260006101000a81548173ffffffffffffffffffffffffffffffffffffffff021916908373ffffffffffffffffffffffffffffffffffffffff160217905550612fba806100666000396000f3fe60806040526004361061010d5760003560e01c80638b82db2011610095578063c84f95bf11610064578063c84f95bf1461057a578063cee2a9cf146105a3578063d917deb5146105e0578063dcd6a5cd146105ea578063e0a337af14610627576102ea565b80638b82db20146104aa5780638ee36f05146104e7578063b4c6219214610524578063bcf93dd61461054f576102ea565b806329f27577116100dc57806329f27577146103c3578063481c6a75146104005780635490a8821461042b57806370a8585d146104565780638abb1e741461047f576102ea565b8063013cf08b146102ef5780630d61b519146103325780631703a0181461036f57806317aadb141461039a576102ea565b366102ea576101f4341015610157576040517f08c379a000000000000000000000000000000000000000000000000000000000815260040161014e90612a2b565b60405180910390fd5b34600460008282546101699190612c6f565b925050819055506001600860003373ffffffffffffffffffffffffffffffffffffffff1673ffffffffffffffffffffffffffffffffffffffff16815260200190815260200160002060006101000a81548160ff02191690831515021790555034600760003373ffffffffffffffffffffffffffffffffffffffff1673ffffffffffffffffffffffffffffffffffffffff16815260200190815260200160002060008282546102179190612c6f565b925050819055506006339080600181540180825580915050600190039060005260206000200160009091909190916101000a81548173ffffffffffffffffffffffffffffffffffffffff021916908373ffffffffffffffffffffffffffffffffffffffff16021790555034600560008282546102939190612c6f565b925050819055503373ffffffffffffffffffffffffffffffffffffffff167f264f630d9efa0d07053a31163641d9fcc0adafc9d9e76f1c37c2ce3a558d2c52346040516102e09190612b2b565b60405180910390a2005b600080fd5b3480156102fb57600080fd5b5061031660048036038101906103119190612319565b610652565b6040516103299796959493929190612955565b60405180910390f35b34801561033e57600080fd5b5061035960048036038101906103549190612319565b610749565b60405161036691906128ee565b60405180910390f35b34801561037b57600080fd5b50610384610a94565b6040516103919190612b2b565b60405180910390f35b3480156103a657600080fd5b506103c160048036038101906103bc9190612319565b610a9a565b005b3480156103cf57600080fd5b506103ea60048036038101906103e59190612319565b610fbd565b6040516103f7919061288f565b60405180910390f35b34801561040c57600080fd5b50610415610ffc565b604051610422919061288f565b60405180910390f35b34801561043757600080fd5b50610440611022565b60405161044d9190612b2b565b60405180910390f35b34801561046257600080fd5b5061047d6004803603810190610478919061229e565b611028565b005b34801561048b57600080fd5b5061049461123f565b6040516104a19190612b2b565b60405180910390f35b3480156104b657600080fd5b506104d160048036038101906104cc9190612239565b611245565b6040516104de9190612b2b565b60405180910390f35b3480156104f357600080fd5b5061050e60048036038101906105099190612262565b61125d565b60405161051b91906128ee565b60405180910390f35b34801561053057600080fd5b5061053961128c565b60405161054691906128cc565b60405180910390f35b34801561055b57600080fd5b506105646114c3565b6040516105719190612b2b565b60405180910390f35b34801561058657600080fd5b506105a1600480360381019061059c9190612262565b6114c9565b005b3480156105af57600080fd5b506105ca60048036038101906105c59190612239565b611b32565b6040516105d791906128ee565b60405180910390f35b6105e8611b52565b005b3480156105f657600080fd5b50610611600480360381019061060c9190612319565b611d2a565b60405161061e91906128ee565b60405180910390f35b34801561063357600080fd5b5061063c612021565b60405161064991906128aa565b60405180910390f35b600a60205280600052604060002060009150905080600001805461067590612e0e565b80601f01602080910402602001604051908101604052809291908181526020018280546106a190612e0e565b80156106ee5780601f106106c3576101008083540402835291602001916106ee565b820191906000526020600020905b8154815290600101906020018083116106d157829003601f168201915b5050505050908060010154908060020160009054906101000a900473ffffffffffffffffffffffffffffffffffffffff16908060030154908060040154908060050154908060060160009054906101000a900460ff16905087565b6000600260009054906101000a900473ffffffffffffffffffffffffffffffffffffffff1673ffffffffffffffffffffffffffffffffffffffff163373ffffffffffffffffffffffffffffffffffffffff16146107db576040517f08c379a00000000000000000000000000000000000000000000000000000000081526004016107d290612a6b565b60405180910390fd5b60001515600a600084815260200190815260200160002060060160009054906101000a900460ff16151514610845576040517f08c379a000000000000000000000000000000000000000000000000000000000815260040161083c90612a8b565b60405180910390fd5b6001546004546064600a60008681526020019081526020016000206004015461086e9190612cf6565b6108789190612cc5565b10156108b9576040517f08c379a00000000000000000000000000000000000000000000000000000000081526004016108b090612b0b565b60405180910390fd5b6001600a600084815260200190815260200160002060060160006101000a81548160ff021916908315150217905550600554600a6000848152602001908152602001600020600101541115610943576040517f08c379a000000000000000000000000000000000000000000000000000000000815260040161093a90612acb565b60405180910390fd5b600a6000838152602001908152602001600020600101546005600082825461096b9190612d50565b92505081905550600a600083815260200190815260200160002060020160009054906101000a900473ffffffffffffffffffffffffffffffffffffffff1673ffffffffffffffffffffffffffffffffffffffff166108fc600a6000858152602001908152602001600020600101549081150290604051600060405180830381858888f19350505050158015610a04573d6000803e3d6000fd5b50817fe285e47f4804f679760aa4e907da874045af16436d55df64b64ffd9ca2539dfa600a600085815260200190815260200160002060010154600a600086815260200190815260200160002060020160009054906101000a900473ffffffffffffffffffffffffffffffffffffffff16604051610a83929190612b46565b60405180910390a260019050919050565b60015481565b600860003373ffffffffffffffffffffffffffffffffffffffff1673ffffffffffffffffffffffffffffffffffffffff16815260200190815260200160002060009054906101000a900460ff16610b26576040517f08c379a0000000000000000000000000000000000000000000000000000000008152600401610b1d90612a4b565b60405180910390fd5b80600760003373ffffffffffffffffffffffffffffffffffffffff1673ffffffffffffffffffffffffffffffffffffffff168152602001908152602001600020541015610ba8576040517f08c379a0000000000000000000000000000000000000000000000000000000008152600401610b9f906129cb565b60405180910390fd5b80600760003373ffffffffffffffffffffffffffffffffffffffff1673ffffffffffffffffffffffffffffffffffffffff1681526020019081526020016000206000828254610bf79190612d50565b925050819055508060046000828254610c109190612d50565b925050819055506000600760003373ffffffffffffffffffffffffffffffffffffffff1673ffffffffffffffffffffffffffffffffffffffff168152602001908152602001600020541415610f0b576000600860003373ffffffffffffffffffffffffffffffffffffffff1673ffffffffffffffffffffffffffffffffffffffff16815260200190815260200160002060006101000a81548160ff02191690831515021790555060005b600680549050811015610f09573373ffffffffffffffffffffffffffffffffffffffff1660068281548110610d18577f4e487b7100000000000000000000000000000000000000000000000000000000600052603260045260246000fd5b9060005260206000200160009054906101000a900473ffffffffffffffffffffffffffffffffffffffff1673ffffffffffffffffffffffffffffffffffffffff16148015610d6c5750600160068054905014155b15610e6f5760066001600680549050610d859190612d50565b81548110610dbc577f4e487b7100000000000000000000000000000000000000000000000000000000600052603260045260246000fd5b9060005260206000200160009054906101000a900473ffffffffffffffffffffffffffffffffffffffff1660068281548110610e21577f4e487b7100000000000000000000000000000000000000000000000000000000600052603260045260246000fd5b9060005260206000200160006101000a81548173ffffffffffffffffffffffffffffffffffffffff021916908373ffffffffffffffffffffffffffffffffffffffff16021790555050610fba565b6001600680549050610e819190612d50565b811415610ef6576006805480610ec0577f4e487b7100000000000000000000000000000000000000000000000000000000600052603160045260246000fd5b6001900381819060005260206000200160006101000a81549073ffffffffffffffffffffffffffffffffffffffff021916905590555b8080610f0190612e40565b915050610cba565b505b8060056000828254610f1d9190612d50565b925050819055503373ffffffffffffffffffffffffffffffffffffffff166108fc829081150290604051600060405180830381858888f19350505050158015610f6a573d6000803e3d6000fd5b503373ffffffffffffffffffffffffffffffffffffffff167f5460477ab9e47c541080b6d90d7a5ab2e64355534a42071670aba93c4d17be4882604051610fb19190612b2b565b60405180910390a25b50565b60068181548110610fcd57600080fd5b906000526020600020016000915054906101000a900473ffffffffffffffffffffffffffffffffffffffff1681565b600260009054906101000a900473ffffffffffffffffffffffffffffffffffffffff1681565b60055481565b600260009054906101000a900473ffffffffffffffffffffffffffffffffffffffff1673ffffffffffffffffffffffffffffffffffffffff163373ffffffffffffffffffffffffffffffffffffffff16146110b8576040517f08c379a00000000000000000000000000000000000000000000000000000000081526004016110af90612a6b565b60405180910390fd5b6040518060e001604052808581526020018481526020018373ffffffffffffffffffffffffffffffffffffffff16815260200160035481526020016000815260200182426111069190612c6f565b815260200160001515815250600a6000600354815260200190815260200160002060008201518160000190805190602001906111439291906120af565b506020820151816001015560408201518160020160006101000a81548173ffffffffffffffffffffffffffffffffffffffff021916908373ffffffffffffffffffffffffffffffffffffffff160217905550606082015181600301556080820151816004015560a0820151816005015560c08201518160060160006101000a81548160ff0219169083151502179055509050506003547f8d35b72fd3f082426bb4cd3801396bf51e9e77a2d5cd5ecec078b485a107b71f85858542866112099190612c6f565b6040516112199493929190612909565b60405180910390a26003600081548092919061123490612e40565b919050555050505050565b60045481565b60076020528060005260406000206000915090505481565b60096020528160005260406000206020528060005260406000206000915091509054906101000a900460ff1681565b6060600060035467ffffffffffffffff8111156112d2577f4e487b7100000000000000000000000000000000000000000000000000000000600052604160045260246000fd5b60405190808252806020026020018201604052801561130b57816020015b6112f8612135565b8152602001906001900390816112f05790505b50905060005b6003548110156114bb57600a60008281526020019081526020016000206040518060e001604052908160008201805461134990612e0e565b80601f016020809104026020016040519081016040528092919081815260200182805461137590612e0e565b80156113c25780601f10611397576101008083540402835291602001916113c2565b820191906000526020600020905b8154815290600101906020018083116113a557829003601f168201915b50505050508152602001600182015481526020016002820160009054906101000a900473ffffffffffffffffffffffffffffffffffffffff1673ffffffffffffffffffffffffffffffffffffffff1673ffffffffffffffffffffffffffffffffffffffff1681526020016003820154815260200160048201548152602001600582015481526020016006820160009054906101000a900460ff16151515158152505082828151811061149d577f4e487b7100000000000000000000000000000000000000000000000000000000600052603260045260246000fd5b602002602001018190525080806114b390612e40565b915050611311565b508091505090565b60005481565b600860003373ffffffffffffffffffffffffffffffffffffffff1673ffffffffffffffffffffffffffffffffffffffff16815260200190815260200160002060009054906101000a900460ff16611555576040517f08c379a000000000000000000000000000000000000000000000000000000000815260040161154c90612a4b565b60405180910390fd5b80600760003373ffffffffffffffffffffffffffffffffffffffff1673ffffffffffffffffffffffffffffffffffffffff1681526020019081526020016000205410156115d7576040517f08c379a00000000000000000000000000000000000000000000000000000000081526004016115ce906129cb565b60405180910390fd5b3373ffffffffffffffffffffffffffffffffffffffff168273ffffffffffffffffffffffffffffffffffffffff16141580156116405750600073ffffffffffffffffffffffffffffffffffffffff168273ffffffffffffffffffffffffffffffffffffffff1614155b61167f576040517f08c379a000000000000000000000000000000000000000000000000000000000815260040161167690612aeb565b60405180910390fd5b80600760003373ffffffffffffffffffffffffffffffffffffffff1673ffffffffffffffffffffffffffffffffffffffff16815260200190815260200160002060008282546116ce9190612d50565b9250508190555080600760008473ffffffffffffffffffffffffffffffffffffffff1673ffffffffffffffffffffffffffffffffffffffff16815260200190815260200160002060008282546117249190612c6f565b925050819055506001600860008473ffffffffffffffffffffffffffffffffffffffff1673ffffffffffffffffffffffffffffffffffffffff16815260200190815260200160002060006101000a81548160ff0219169083151502179055506006829080600181540180825580915050600190039060005260206000200160009091909190916101000a81548173ffffffffffffffffffffffffffffffffffffffff021916908373ffffffffffffffffffffffffffffffffffffffff1602179055506000600760003373ffffffffffffffffffffffffffffffffffffffff1673ffffffffffffffffffffffffffffffffffffffff168152602001908152602001600020541415611ac8576000600860003373ffffffffffffffffffffffffffffffffffffffff1673ffffffffffffffffffffffffffffffffffffffff16815260200190815260200160002060006101000a81548160ff02191690831515021790555060005b600680549050811015611ac6573373ffffffffffffffffffffffffffffffffffffffff16600682815481106118e7577f4e487b7100000000000000000000000000000000000000000000000000000000600052603260045260246000fd5b9060005260206000200160009054906101000a900473ffffffffffffffffffffffffffffffffffffffff1673ffffffffffffffffffffffffffffffffffffffff161415611a2c57600660016006805490506119429190612d50565b81548110611979577f4e487b7100000000000000000000000000000000000000000000000000000000600052603260045260246000fd5b9060005260206000200160009054906101000a900473ffffffffffffffffffffffffffffffffffffffff16600682815481106119de577f4e487b7100000000000000000000000000000000000000000000000000000000600052603260045260246000fd5b9060005260206000200160006101000a81548173ffffffffffffffffffffffffffffffffffffffff021916908373ffffffffffffffffffffffffffffffffffffffff16021790555050611b2e565b6001600680549050611a3e9190612d50565b811415611ab3576006805480611a7d577f4e487b7100000000000000000000000000000000000000000000000000000000600052603160045260246000fd5b6001900381819060005260206000200160006101000a81549073ffffffffffffffffffffffffffffffffffffffff021916905590555b8080611abe90612e40565b915050611889565b505b8173ffffffffffffffffffffffffffffffffffffffff163373ffffffffffffffffffffffffffffffffffffffff167f99c01cd4f8275976ef33d24514b1694c8a9d5730d92e26996834343e09778e9983604051611b259190612b2b565b60405180910390a35b5050565b60086020528060005260406000206000915054906101000a900460ff1681565b6101f4341015611b97576040517f08c379a0000000000000000000000000000000000000000000000000000000008152600401611b8e90612aab565b60405180910390fd5b3460046000828254611ba99190612c6f565b925050819055506001600860003373ffffffffffffffffffffffffffffffffffffffff1673ffffffffffffffffffffffffffffffffffffffff16815260200190815260200160002060006101000a81548160ff02191690831515021790555034600760003373ffffffffffffffffffffffffffffffffffffffff1673ffffffffffffffffffffffffffffffffffffffff1681526020019081526020016000206000828254611c579190612c6f565b925050819055506006339080600181540180825580915050600190039060005260206000200160009091909190916101000a81548173ffffffffffffffffffffffffffffffffffffffff021916908373ffffffffffffffffffffffffffffffffffffffff1602179055503460056000828254611cd39190612c6f565b925050819055503373ffffffffffffffffffffffffffffffffffffffff167f264f630d9efa0d07053a31163641d9fcc0adafc9d9e76f1c37c2ce3a558d2c5234604051611d209190612b2b565b60405180910390a2565b6000600860003373ffffffffffffffffffffffffffffffffffffffff1673ffffffffffffffffffffffffffffffffffffffff16815260200190815260200160002060009054906101000a900460ff16611db8576040517f08c379a0000000000000000000000000000000000000000000000000000000008152600401611daf90612a4b565b60405180910390fd5b42600a6000848152602001908152602001600020600501541015611e11576040517f08c379a0000000000000000000000000000000000000000000000000000000008152600401611e0890612a0b565b60405180910390fd5b60001515600960003373ffffffffffffffffffffffffffffffffffffffff1673ffffffffffffffffffffffffffffffffffffffff168152602001908152602001600020600084815260200190815260200160002060009054906101000a900460ff16151514611eb5576040517f08c379a0000000000000000000000000000000000000000000000000000000008152600401611eac906129eb565b60405180910390fd5b6001600960003373ffffffffffffffffffffffffffffffffffffffff1673ffffffffffffffffffffffffffffffffffffffff168152602001908152602001600020600084815260200190815260200160002060006101000a81548160ff021916908315150217905550600760003373ffffffffffffffffffffffffffffffffffffffff1673ffffffffffffffffffffffffffffffffffffffff16815260200190815260200160002054600a60008481526020019081526020016000206004016000828254611f839190612c6f565b925050819055503373ffffffffffffffffffffffffffffffffffffffff16827fe7ee74ca1f4bb1b82b14f87794c45b3e59c39e372b862fb97a6316b43355b69e600760003373ffffffffffffffffffffffffffffffffffffffff1673ffffffffffffffffffffffffffffffffffffffff168152602001908152602001600020546040516120109190612b2b565b60405180910390a360019050919050565b606060068054806020026020016040519081016040528092919081815260200182805480156120a557602002820191906000526020600020905b8160009054906101000a900473ffffffffffffffffffffffffffffffffffffffff1673ffffffffffffffffffffffffffffffffffffffff168152602001906001019080831161205b575b5050505050905090565b8280546120bb90612e0e565b90600052602060002090601f0160209004810192826120dd5760008555612124565b82601f106120f657805160ff1916838001178555612124565b82800160010185558215612124579182015b82811115612123578251825591602001919060010190612108565b5b509050612131919061218a565b5090565b6040518060e001604052806060815260200160008152602001600073ffffffffffffffffffffffffffffffffffffffff1681526020016000815260200160008152602001600081526020016000151581525090565b5b808211156121a357600081600090555060010161218b565b5090565b60006121ba6121b584612ba0565b612b6f565b9050828152602081018484840111156121d257600080fd5b6121dd848285612dcc565b509392505050565b6000813590506121f481612f56565b92915050565b600082601f83011261220b57600080fd5b813561221b8482602086016121a7565b91505092915050565b60008135905061223381612f6d565b92915050565b60006020828403121561224b57600080fd5b6000612259848285016121e5565b91505092915050565b6000806040838503121561227557600080fd5b6000612283858286016121e5565b925050602061229485828601612224565b9150509250929050565b600080600080608085870312156122b457600080fd5b600085013567ffffffffffffffff8111156122ce57600080fd5b6122da878288016121fa565b94505060206122eb87828801612224565b93505060406122fc878288016121e5565b925050606061230d87828801612224565b91505092959194509250565b60006020828403121561232b57600080fd5b600061233984828501612224565b91505092915050565b600061234e838361236e565b60208301905092915050565b600061236683836127d5565b905092915050565b61237781612d84565b82525050565b61238681612d84565b82525050565b600061239782612bf0565b6123a18185612c2b565b93506123ac83612bd0565b8060005b838110156123dd5781516123c48882612342565b97506123cf83612c11565b9250506001810190506123b0565b5085935050505092915050565b60006123f582612bfb565b6123ff8185612c3c565b93508360208202850161241185612be0565b8060005b8581101561244d578484038952815161242e858261235a565b945061243983612c1e565b925060208a01995050600181019050612415565b50829750879550505050505092915050565b61246881612d96565b82525050565b61247781612d96565b82525050565b600061248882612c06565b6124928185612c4d565b93506124a2818560208601612ddb565b6124ab81612f45565b840191505092915050565b60006124c182612c06565b6124cb8185612c5e565b93506124db818560208601612ddb565b6124e481612f45565b840191505092915050565b60006124fc601383612c5e565b91507f496e73756666696369656e7420536861726573000000000000000000000000006000830152602082019050919050565b600061253c600d83612c5e565b91507f416c726561647920566f746564000000000000000000000000000000000000006000830152602082019050919050565b600061257c601183612c5e565b91507f566f74696e672054696d6520456e6465640000000000000000000000000000006000830152602082019050919050565b60006125bc601583612c5e565b91507f53656e64206174206c65617374203530302057656900000000000000000000006000830152602082019050919050565b60006125fc601983612c5e565b91507f4f6e6c7920696e766573746f72732063616e20616363657373000000000000006000830152602082019050919050565b600061263c602583612c5e565b91507f4f6e6c79204d616e616765722063616e2061636365737320746869732066756e60008301527f6374696f6e0000000000000000000000000000000000000000000000000000006020830152604082019050919050565b60006126a2601983612c5e565b91507f50726f706f73616c20416c7265616479204578656375746564000000000000006000830152602082019050919050565b60006126e2601583612c5e565b91507f53656e64204174206c65617374203530302057656900000000000000000000006000830152602082019050919050565b6000612722601483612c5e565b91507f496e73756666696369656e742042616c616e63650000000000000000000000006000830152602082019050919050565b6000612762600f83612c5e565b91507f496e76616c6964204164647265737300000000000000000000000000000000006000830152602082019050919050565b60006127a2601983612c5e565b91507f4d616a6f7269747920646f6573206e6f7420737570706f7274000000000000006000830152602082019050919050565b600060e08301600083015184820360008601526127f2828261247d565b91505060208301516128076020860182612871565b50604083015161281a604086018261236e565b50606083015161282d6060860182612871565b5060808301516128406080860182612871565b5060a083015161285360a0860182612871565b5060c083015161286660c086018261245f565b508091505092915050565b61287a81612dc2565b82525050565b61288981612dc2565b82525050565b60006020820190506128a4600083018461237d565b92915050565b600060208201905081810360008301526128c4818461238c565b905092915050565b600060208201905081810360008301526128e681846123ea565b905092915050565b6000602082019050612903600083018461246e565b92915050565b6000608082019050818103600083015261292381876124b6565b90506129326020830186612880565b61293f604083018561237d565b61294c6060830184612880565b95945050505050565b600060e082019050818103600083015261296f818a6124b6565b905061297e6020830189612880565b61298b604083018861237d565b6129986060830187612880565b6129a56080830186612880565b6129b260a0830185612880565b6129bf60c083018461246e565b98975050505050505050565b600060208201905081810360008301526129e4816124ef565b9050919050565b60006020820190508181036000830152612a048161252f565b9050919050565b60006020820190508181036000830152612a248161256f565b9050919050565b60006020820190508181036000830152612a44816125af565b9050919050565b60006020820190508181036000830152612a64816125ef565b9050919050565b60006020820190508181036000830152612a848161262f565b9050919050565b60006020820190508181036000830152612aa481612695565b9050919050565b60006020820190508181036000830152612ac4816126d5565b9050919050565b60006020820190508181036000830152612ae481612715565b9050919050565b60006020820190508181036000830152612b0481612755565b9050919050565b60006020820190508181036000830152612b2481612795565b9050919050565b6000602082019050612b406000830184612880565b92915050565b6000604082019050612b5b6000830185612880565b612b68602083018461237d565b9392505050565b6000604051905081810181811067ffffffffffffffff82111715612b9657612b95612f16565b5b8060405250919050565b600067ffffffffffffffff821115612bbb57612bba612f16565b5b601f19601f8301169050602081019050919050565b6000819050602082019050919050565b6000819050602082019050919050565b600081519050919050565b600081519050919050565b600081519050919050565b6000602082019050919050565b6000602082019050919050565b600082825260208201905092915050565b600082825260208201905092915050565b600082825260208201905092915050565b600082825260208201905092915050565b6000612c7a82612dc2565b9150612c8583612dc2565b9250827fffffffffffffffffffffffffffffffffffffffffffffffffffffffffffffffff03821115612cba57612cb9612e89565b5b828201905092915050565b6000612cd082612dc2565b9150612cdb83612dc2565b925082612ceb57612cea612eb8565b5b828204905092915050565b6000612d0182612dc2565b9150612d0c83612dc2565b9250817fffffffffffffffffffffffffffffffffffffffffffffffffffffffffffffffff0483118215151615612d4557612d44612e89565b5b828202905092915050565b6000612d5b82612dc2565b9150612d6683612dc2565b925082821015612d7957612d78612e89565b5b828203905092915050565b6000612d8f82612da2565b9050919050565b60008115159050919050565b600073ffffffffffffffffffffffffffffffffffffffff82169050919050565b6000819050919050565b82818337600083830152505050565b60005b83811015612df9578082015181840152602081019050612dde565b83811115612e08576000848401525b50505050565b60006002820490506001821680612e2657607f821691505b60208210811415612e3a57612e39612ee7565b5b50919050565b6000612e4b82612dc2565b91507fffffffffffffffffffffffffffffffffffffffffffffffffffffffffffffffff821415612e7e57612e7d612e89565b5b600182019050919050565b7f4e487b7100000000000000000000000000000000000000000000000000000000600052601160045260246000fd5b7f4e487b7100000000000000000000000000000000000000000000000000000000600052601260045260246000fd5b7f4e487b7100000000000000000000000000000000000000000000000000000000600052602260045260246000fd5b7f4e487b7100000000000000000000000000000000000000000000000000000000600052604160045260246000fd5b6000601f19601f8301169050919050565b612f5f81612d84565b8114612f6a57600080fd5b50565b612f7681612dc2565b8114612f8157600080fd5b5056fea264697066735822122092c9b61c7acb31a07c17f1a7621e897782ccd37e2bc8d7cc88f2303325f391d864736f6c63430008000033",
  "immutableReferences": {},
  "source": "// SPDX-License-Identifier: GPL-3.0\n\npragma solidity >=0.7.0 <0.9.0;\n\ncontract DAO {\n    struct Proposal {\n        string purpose; // Purpose or description of the proposal\n        uint256 amount; // Amount of Ether associated with the proposal.\n        address recipient; // Corrected \"receipient\" to \"recipient\"\n        uint256 id; // Unique identifier for the proposal.\n        uint256 votes; // Total votes reveived by the proposal.\n        uint256 end; // Timestamp indicating when the proposal's voting ends.\n        bool isExecuted; // Flag indicating whether the proposal has been executed.\n    }\n    uint256 public voteTime; // Time allocated for vating on proposals.\n    uint256 public quorum = 51; // Percentage of votes required for a proposal to pass\n    address public manager; // Address of the contract manager (creator).\n    uint256 id; // Unique identifier for proposals.\n    uint256 public TotalShares; // Total shares held by all investors.\n    uint256 public RemainingFund; // Remaaining Et\n    address[] public InvestorList; // List of addresses of all investors.\n\n    mapping(address => uint) public SharesOf; // Mapping of shares held by each investor.\n    mapping(address => bool) public isInvestor; // Mapping of Addresses to investor status.\n    mapping(address => mapping(uint256 => bool)) public isVoted; // Mapping of addresses and proposals voted on.\n    mapping(uint256 => Proposal) public proposals; // Mapping of proposal IDs to proposal details.\n\n    event ProposalCreated(\n        uint256 indexed id,\n        string purpose,\n        uint256 amount,\n        address recipient,\n        uint256 end\n    ); // Emits information about a newly created proposal.\n    event VoteCasted(\n        uint256 indexed proposalId,\n        address indexed voter,\n        uint256 votes\n    ); // Emits when an investor casts their vote on a proposal.\n    event ProposalExecuted(\n        uint256 indexed proposalId,\n        uint256 amount,\n        address recipient\n    ); // Emits the execution of a proposal, including details of the transaction.\n    event SharesTransferred(\n        address indexed from,\n        address indexed to,\n        uint256 shares\n    ); // Emits the transfer of shares between investors.\n    event RedeemShares(address indexed investor, uint256 amount); // Emits when an investor redeems shares and withdraws funds.\n    event DonationReceived(address indexed donor, uint256 amount); // Emits when a donation is made to the contract.\n    event RequirementError(string reason); // Emits with custom error message when condition not met.\n\n    constructor() {\n        manager = msg.sender; // The contract creator is the initial manager.\n    }\n\n    modifier onlyManager() {\n        // Modifier to restrict access to only the contract manager.\n        require(msg.sender == manager, \"Only Manager can access this function\");\n        _;\n    }\n\n    modifier onlyInvestor() {\n        // Modifier to restrict access to only investors.\n        require(isInvestor[msg.sender], \"Only investors can access\");\n        _;\n    }\n\n    // Function to create a proposal.\n    function createProposal(\n        string memory _purpose,\n        uint256 _amount,\n        address _recipient, // Corrected \"receipient\" to \"recipient\"\n        uint256 _Endin\n    ) public onlyManager {\n        proposals[id] = Proposal(\n            _purpose,\n            _amount,\n            _recipient,\n            id,\n            0,\n            block.timestamp + _Endin,\n            false\n        );\n        emit ProposalCreated(\n            id,\n            _purpose,\n            _amount,\n            _recipient,\n            _Endin + block.timestamp\n        );\n        id++;\n    }\n\n    // Function to retrieve a list of all proposals.\n    function GetProposalList() public view returns (Proposal[] memory) {\n        Proposal[] memory arr = new Proposal[](id);\n        for (uint x; x < id; x++) {\n            arr[x] = proposals[x];\n        }\n        return arr;\n    }\n\n    // Function to execute a proposal.\n    function executeProposal(uint256 _id) public onlyManager returns (bool) {\n        require(\n            proposals[_id].isExecuted == false,\n            \"Proposal Already Executed\"\n        );\n        require(\n            ((proposals[_id].votes * 100) / TotalShares) >= quorum,\n            \"Majority does not support\"\n        );\n        proposals[_id].isExecuted = true;\n        require(proposals[_id].amount <= RemainingFund, \"Insufficient Balance\");\n        RemainingFund -= proposals[_id].amount;\n        payable(proposals[_id].recipient).transfer(proposals[_id].amount);\n        emit ProposalExecuted(\n            _id,\n            proposals[_id].amount,\n            proposals[_id].recipient\n        );\n        return true;\n    }\n\n    // Function to receive Ether donations.\n    receive() external payable {\n        require(msg.value >= 500, \"Send at least 500 Wei\");\n        TotalShares += msg.value;\n        isInvestor[msg.sender] = true;\n        SharesOf[msg.sender] += msg.value;\n        InvestorList.push(msg.sender);\n        RemainingFund += msg.value;\n        emit DonationReceived(msg.sender, msg.value);\n    }\n\n    // Function for users to donate to the contract.\n    function Donate() public payable {\n        require(msg.value >= 500, \"Send At least 500 Wei\");\n        TotalShares += msg.value;\n        isInvestor[msg.sender] = true;\n        SharesOf[msg.sender] += msg.value;\n        InvestorList.push(msg.sender);\n        RemainingFund += msg.value;\n        emit DonationReceived(msg.sender, msg.value);\n    }\n\n    // Function for investors to vote on a proposal.\n    function Vote(uint _id) public onlyInvestor returns (bool) {\n        require(proposals[_id].end >= block.timestamp, \"Voting Time Ended\");\n        require(isVoted[msg.sender][_id] == false, \"Already Voted\");\n        isVoted[msg.sender][_id] = true;\n        proposals[_id].votes += SharesOf[msg.sender];\n        emit VoteCasted(_id, msg.sender, SharesOf[msg.sender]);\n        return true;\n    }\n\n    // Function to transfer shares from one investor to another.\n    function TransferShare(\n        address TransferTo,\n        uint ShareCount\n    ) public onlyInvestor {\n        require(SharesOf[msg.sender] >= ShareCount, \"Insufficient Shares\");\n        require(\n            TransferTo != msg.sender && TransferTo != address(0),\n            \"Invalid Address\"\n        );\n        SharesOf[msg.sender] -= ShareCount;\n        SharesOf[TransferTo] += ShareCount; // Corrected to add shares to the recipient\n        isInvestor[TransferTo] = true;\n        InvestorList.push(TransferTo);\n        if (SharesOf[msg.sender] == 0) {\n            isInvestor[msg.sender] = false;\n            for (uint a; a < InvestorList.length; a++) {\n                if (InvestorList[a] == msg.sender) {\n                    InvestorList[a] = InvestorList[InvestorList.length - 1];\n                    return;\n                } else if (a == InvestorList.length - 1) {\n                    InvestorList.pop();\n                }\n            }\n        }\n        emit SharesTransferred(msg.sender, TransferTo, ShareCount);\n    }\n\n    // Function to redeem shares and withdraw funds.\n    function RedeemShare(uint _ShareCount) public onlyInvestor {\n        require(SharesOf[msg.sender] >= _ShareCount, \"Insufficient Shares\");\n        SharesOf[msg.sender] -= _ShareCount;\n        TotalShares -= _ShareCount;\n        if (SharesOf[msg.sender] == 0) {\n            isInvestor[msg.sender] = false;\n            for (uint a; a < InvestorList.length; a++) {\n                if (InvestorList[a] == msg.sender && InvestorList.length != 1) {\n                    InvestorList[a] = InvestorList[InvestorList.length - 1];\n                    return;\n                } else if (a == InvestorList.length - 1) {\n                    InvestorList.pop();\n                }\n            }\n        }\n        RemainingFund -= _ShareCount;\n        payable(msg.sender).transfer(_ShareCount);\n        emit RedeemShares(msg.sender, _ShareCount);\n    }\n\n    function getIList() public view returns (address[] memory) {\n        return InvestorList;\n    }\n}\n",
  "sourcePath": "C:\\Users\\akash\\OneDrive\\Desktop\\BlockChain_Projects\\Git_DAO\\dao\\contracts\\Dao.sol",
  "compiler": {
    "name": "solc",
    "version": "0.8.0+commit.c7dfd78e.Emscripten.clang"
  },
  "schemaVersion": "3.4.16",
  "updatedAt": "2024-01-08T04:19:05.252Z",
  "networkType": "ethereum",
  "devdoc": {
    "kind": "dev",
    "methods": {},
    "version": 1
  },
  "userdoc": {
    "kind": "user",
    "methods": {},
    "version": 1
  }
}